:020000040800F2
:10000000780C00209D010008831C00082D1A0008B0
:10001000811C00083D0300080523000800000000C3
:10002000000000000000000000000000211E000889
:100030003F03000800000000911C0008451E000856
:10004000B7010008B7010008B7010008B7010008B0
:10005000B7010008B7010008B7010008B7010008A0
:10006000B7010008B7010008B7010008B701000890
:10007000B7010008B7010008B7010008B701000880
:10008000B7010008B7010008B7010008B701000870
:10009000B7010008B7010008B7010008B701000860
:1000A000B7010008B7010008B7010008B701000850
:1000B000B70100085D1F0008B7010008B70100087C
:1000C000B7010008B7010008B7010008B701000830
:1000D000B7010008FD220008B7010008B7010008B9
:1000E000B7010008B7010008B7010008B701000810
:1000F000B7010008B7010008B7010008B701000800
:10010000B7010008B7010008691F0008B70100081F
:10011000B7010008B7010008B7010008B7010008DF
:10012000B7010008B7010008B7010008B7010008CF
:10013000B7010008B7010008B7010008B7010008BF
:10014000B7010008B7010008B7010008B7010008AF
:10015000B7010008B7010008B7010008B70100089F
:10016000B7010008B7010008B7010008B70100088F
:10017000B7010008B7010008B7010008000000003F
:10018000B7010008B7010008DFF80CD000F088F8CC
:100190000048004785240008780C00200648804766
:1001A00006480047FEE7FEE7FEE7FEE7FEE7FEE75C
:1001B000FEE7FEE7FEE7FEE7111F000889010008E1
:1001C0002DE9F05F0546002092469B46884606468C
:1001D000814640241BE0284641464746224600F01F
:1001E0004EF853465A46C01A914110D3114618464C
:1001F000224600F035F82D1A67EB01084F462246DB
:100200000120002100F02CF817EB00094E41201EC0
:10021000A4F10104DFDC484631462A464346BDE8E6
:10022000F09FD2B201E000F8012B491EFBD27047CB
:100230000022F6E710B513460A4604461946FFF7B2
:10024000F0FF204610BD30B504460020034600E014
:100250005B1C934203D2E05CCD5C401BF8D030BD08
:10026000202A04DB203A00FA02F100207047914076
:10027000C2F1200320FA03F3194390407047202A6B
:1002800004DB203A21FA02F00021704721FA02F340
:10029000D040C2F120029140084319467047000047
:1002A000064C074D06E0E06840F0010394E80700C3
:1002B00098471034AC42F6D3FFF76AFF982B00083A
:1002C000B82B0008E0B5084801A9002200F0C6FDDF
:1002D0009DF807009DF805209DF8063000F5FA61AD
:1002E00002A002F0E3F98CBD5408002025303264EE
:1002F0002F253032642F253032640D0A00000000B3
:10030000FEB5084801A9002200F0D8FD9DF80410B0
:100310009DF805209DF8063003A002F0C7F906B04D
:1003200080BD00BF54080020253032643A253032A9
:10033000643A253032640D0A00000000FEE7704781
:10034000704790F83510022909D1052180F8351041
:100350000068016821F001010160002070478021E0
:1003600041650120704700002DE9F84F5B4A4FF0CE
:10037000080A4FF0010B4FF000084FF0000E9042BA
:10038000574A08BF4FF0070A02444FEAB223072B2F
:1003900038BF4FEAB22A0022102A08BFBDE8F88F02
:1003A0000B680BFA02F6334200F091804B6843F081
:1003B0001004122C13D16FF003040EF01C030F274E
:1003C00004EA520507FA03FC05442C6A24EA0C0CE3
:1003D0000C6904FA03F343EA0C032B624B6803270E
:1003E00003F00305122B07FA08F4076805FA08F56D
:1003F0006FEA040C27EA040747EA0507076013D8E9
:100400000BFA03F414F0061F0ED08468CD6804EADA
:100410000C0405FA08F52C438460C3F30014456806
:100420009440B5432C434460C4688D68DB0004EA03
:100430000C0705FA08F547EA0507C76047D500230A
:10044000284C0EF00C050093284BA4461F461B6851
:1004500043F480433B603B6803F48043009322F005
:1004600003032344224C009FA1461F590F24AC4094
:100470000AFA05F5A7432F4343F80970DCF800306A
:100480004D6843EA0607EC0358BF23EA0607CCF899
:100490000070AC03DCF8043043EA060758BF23EAD7
:1004A0000607CCF80470EC02DCF8083043EA0607D3
:1004B00058BF23EA06070C4BCCF80870AD021C4667
:1004C0001B6843EA060758BF23EA0607276008F1BE
:1004D00002080EF1040E01325EE700BF001C02406C
:1004E0000000FEBF003C01400C3C0140443802408B
:1004F00008FCFFFF42690A408A4208BF0904816183
:100500007047002A08BF0904816170477E4800686F
:10051000704700BFB0B520B3044690F83D0028B93D
:10052000002084F83C00204600F0ACF8242084F839
:100530003D002068016821F00101016000F0CEFA61
:100540004C494D4B00224D4D88424FF0000138BFC1
:100550000121984238BF01226368AB4238BF0A4686
:100560000AB10120B0BD9349B0FBF1F221684D689A
:1005700025F03F0515434D600D6A25F03F0C404DB9
:10058000AB4213D80132013842EA0C020A625A0027
:100590004CF6FF73B0FBF2F001306FF31F3004280C
:1005A00098BF0420CA6922EA030C3AE04FF496751A
:1005B000A0F1010E6A434FF47A75B2FBF5F24CF6E6
:1005C000FF75013242EA0C020A62CA6922EA050C8E
:1005D000A26842B1192004255843BEFBF0F0013057
:1005E00065F31F3006E003EB4300BEFBF0F0013083
:1005F0006FF31F30000509D052B11920042258436F
:10060000BEFBF0F0013062F31F3008E0012008E08B
:1006100003EB4300BEFBF0F001306FF31F3040F4FA
:10062000004040EA0C00C8610868D4E9072320F0C4
:10063000C000104348F2FF321843086088689043B6
:10064000D4E90323184310438860C868D4E905231C
:1006500020F0FF0010431843C860086840F0010014
:10066000086000202021206484F83D10206384F875
:100670003E00B0BD80841E0000093D00A18601003F
:10068000A0860100B0B586B0044601A81421FFF78A
:10069000CFFD21681548814225D10025144C00F575
:1006A000D8300095216841F002012160216801F0F5
:1006B0000201009100990421059103210491012177
:1006C0000391122102914FF44071019101A9FFF7AA
:1006D0004BFE0095206940F400102061206900F471
:1006E00000100090009806B0B0BD00BF005400405C
:1006F000303802400348044900780A681044086012
:10070000704700BF040000207408002080B50B482B
:10071000016841F400710160016841F48061016089
:10072000016841F480710160032000F08DF8002021
:1007300000F006F800F040F8002080BD003C0240C8
:10074000B0B586B001461D200022002400F05EF8FE
:100750001D2000F04DF825480194016841F0020188
:1007600001606946006800F002000190019801A84C
:1007700000F098F900F0B2F90E4D40000B490C4B17
:1007800040F2E732B0FBF5F00138C1E9003008462D
:10079000C1E902420C6100F0A0FD08B1012002E0B5
:1007A000024800F0E5FD06B0B0BD00BF30070020F4
:1007B0000004004040420F0082B000200B4901902D
:1007C0004A6842F480424A604A6802F480420192D8
:1007D000019A0090086840F080500860086800F0B6
:1007E00080500090009802B0704700BF403802402F
:1007F000002808DB00F01F010122400902FA01F184
:10080000014A42F82010704700E100E080B5144B27
:100810001B68C3F3022CBCF1030E8CF007034FF0EE
:10082000FF3C38BF4FF0000E042B28BF04230CFA06
:1008300003F399430CFA0EF301FA0EF19A431143B4
:10084000BDE8804001F092BD05494FF6FF030A68FC
:100850001A4060F30A22034810430860704700BF43
:100860000CED00E00000FA05F8B50446006810F051
:10087000050F25D03F4F0020884E3860FFF746FE19
:1008800005463068000105D5FFF740FE401B0228F1
:10089000F7D934E0D4E90101090741EA8010C6F82C
:1008A000840001203860FFF731FE05463068000102
:1008B00005D4FFF72BFE401B0228F7D91FE0206864
:1008C00080074FF000001BD5744E00902A4F306C0B
:1008D00040F080503064306C00F080500090009800
:1008E000386840F480703860FFF710FE05463868BD
:1008F000C00507D4FFF70AFE401B0228F7D90320E2
:1009000001B0F0BD306F10F440701FD0E16801F409
:10091000407188421AD0306F184901220A600022C3
:1009200020F440700A603067306FC0070ED0FFF7C8
:10093000EDFD054641F28837306F800706D4FFF79A
:10094000E5FD411B0320B942F6D9D9E7E068B2685A
:100950000B4900F4407322F4F81201406FF31F308A
:10096000B3F5407F08BF0A43B260316F0843306778
:100970000020C5E76800474200700040400E474233
:10098000FFFCFF0F2DE9F041002800F08380434B6E
:1009900004468846D3F8000400F00F00884207D2CE
:1009A00083F80084D3F8000400F00F00404571D1B3
:1009B0002068810711D5410742BF996841F4E05191
:1009C0009960010742BF996841F460419960996854
:1009D000A26821F0F00111439960C0072AD0606835
:1009E000811E022903D21968890109D452E0012825
:1009F00003D11968890303D44CE01968890749D5E4
:100A000099681D4621F0030108439860FFF77EFDB9
:100A1000064641F28837A86861682B4600F00C0052
:100A2000B0EB810F06D0FFF771FD801BB842F2D901
:100A3000032430E0D3F8000400F00F00404507D94C
:100A400083F80084D3F8000400F00F00404521D162
:100A50002068410705D59968E26821F4E051114307
:100A60009960000706D59868216920F4604040EA43
:100A7000C10098601C4600F04BF8A168084A0024A9
:100A8000C1F30311515CC8401E4908600020FFF704
:100A900057FE00E001242046BDE8F0810038024006
:100AA000742B00080F220260174A136803F0030337
:100AB0004360136803F0F0038360136803F4E053AA
:100AC000C3604FF4E053D2F800C003EADC030361D3
:100AD000D2F8F80300F00F000860704709480A498F
:100AE0000A4A00680968C1F38221515CC840704716
:100AF00004480549054A00680968C1F34231515C60
:100B0000C84070470C00002008380240842B0008C1
:100B100010B5144C606800F00C011348082904D08B
:100B2000042904BF114810BD10BD2168236801F0DD
:100B30003F0221685B02C1F3881105D4A1FB0001CB
:100B40000023FFF73DFB03E008484843B0FBF2F009
:100B500021680222C1F3014102EB4101B0FBF1F037
:100B600010BD00BF043802400024F40000127A00D7
:100B70002DE9FC41002800F0058104460078AF4EC5
:100B8000C0072FD0B06800F00C00042823D0B06854
:100B900000F00C00082802D1706840021BD467687E
:100BA000B7F5803F07D03068B7F5A02F40F00B8134
:100BB00040F480203060306840F480303060FFF7CF
:100BC000A5FC0546306880030CD4FFF79FFC401B52
:100BD0006428F7D99DE03068800303D56068002859
:100BE00000F0D080207880072BD5B06810F00C0F73
:100BF00007D0B06800F00C00082809D170684002E6
:100C000006D43068800715D5E068012812D0B9E015
:100C1000E1688B4800297ED001210160FFF776FC56
:100C200005463068800705D4FFF770FC401B02289A
:100C3000F7D96EE03068216920F0F80040EAC10081
:100C400030602078000721D5606978B17C480121A7
:100C5000C0F8801EFFF75AFC0546706F800715D458
:100C6000FFF754FC401B0228F7D952E074480021DA
:100C7000C0F8801EFFF74AFC0546706F800705D557
:100C8000FFF744FC401B0228F7D942E020784007D8
:100C900070D5306C4FF00008C0000CD4CDF8048043
:100CA0004FF00108306C40F080503064306C00F040
:100CB000805001900198634F3868C0050FD43868A0
:100CC00040F480703860FFF721FC05463868C005A5
:100CD00005D4FFF71BFC401B0228F7D919E0A768D1
:100CE000012F05D0306F052F25D140F0040030676B
:100CF000306F40F001003067FFF708FC054641F215
:100D00008837306F80072ED4FFF700FC401BB842B5
:100D1000F7D9032037E000210160FFF7F7FB054614
:100D2000306880077FF58DAFFFF7F0FB411B032094
:100D30000229F5D927E020F001003067306F20F05C
:100D400004003067FFF7E2FB0546002FD7D141F2E0
:100D50008837306F800706D5FFF7D8FB411B03208B
:100D6000B942F6D90FE0B8F1000F1EBF306C20F089
:100D700080503064A769002F5DD0B06800F00C008F
:100D8000082803D1012002B0BDE8F0812C490020E1
:100D900088460866FFF7BAFB0546022F09D130687E
:100DA000800128D5FFF7B2FB411B03200229F6D9A9
:100DB000E9E7306880013ED5FFF7A8FB411B03201F
:100DC0000329F6D3DFE720F480303060306820F468
:100DD00080203060FFF79AFB0546002F7FF4F2AECB
:100DE000306880037FF5FEAEFFF790FB411B0320C8
:100DF0006429F5D9C7E704F11C078FCF0843D9034D
:100E000040EA82104FF6FF72914340EA0760A1F575
:100E10008031084370600120C8F86000FFF776FB5E
:100E200004463068800106D4FFF770FB011B0320E5
:100E30000229F6D9A7E70020A5E700BF0038024045
:100E40000000474200700040006800EB8100006D28
:100E50007047006800EB81000265704710B50068BC
:100E6000002A406800F03F034FEA104C8B70C0F33B
:100E7000042E81F801E081F803C0C0F342340C7005
:100E80001AD11B0900F00F04020A43EA830302F09F
:100E90000F0204EB43038B704FEA1E1343EA8303F4
:100EA00002EB43024A70C0F303500CF00F0200EB58
:100EB000800002EB4000C870002010BD10B5006833
:100EC000002A836A4B6003696FF3DF338B6003682A
:100ED0004FF0400000EA1340C87003F07F008870B4
:100EE000C3F3062E81F801E0C3F3054C81F800C07E
:100EF0001BD100091A0A1C0C03F00F0300EB800041
:100F000003EB4000887002F00F004FEA1E1202EB64
:100F1000820200EB42004FEA1C12487004F00F00FE
:100F200042EA820200EB42000870002010BD00007F
:100F3000B8B110B50446407F20B900202077204684
:100F400000F042F80220CA216077206841625321F4
:100F50004162204600F0E4FE216820B10120042215
:100F60002BE0012070478868164A1040886060684E
:100F7000D4E9042310438A68184310438860E0686A
:100F80000861A0680A6942EA00400861C86820F068
:100F90008000C8608868800605D4204600F0ECF820
:100FA00021680028DAD1086C20F480200864A06948
:100FB0000A6C1043012208640020FF234B62627711
:100FC00010BD00BFBFFF8FFF00680449884218BFF3
:100FD0007047034801210160704700BF00280040AE
:100FE0003C0E47422DE9F0410D46017F04460220A8
:100FF000012908BFBDE8F08160770120002A207731
:1010000006D06878E978AE78000240EA014714E03B
:101010006F78DFF85C81F80642BF07F0EF0000F15F
:101020000A076F70E878C0470646F8B2C04700026A
:1010300040EA0647A878C04706462068CA212D78AE
:10104000416253214162204600F06AFE18B12168D6
:101050000120042216E047EA0600216820F0C000C3
:1010600040EA45304860C86820F08000C860886861
:10107000800605D4204600F07FF821680028E7D1DB
:1010800000200122FF234B62002121776277BDE817
:10109000F08100BF2DE9F0470D46017F0446022094
:1010A000012908BFBDE8F08760770120002A20777A
:1010B0002768B86800F040000FD0002807BF4FF045
:1010C000000885F80380E8784FEA004869782878B6
:1010D000AE78090241EA004915E0002807BF4FF049
:1010E000000885F80380E8784FEA0048DFF880A020
:1010F0002878D04706466878D047000240EA06497B
:10110000A878D0470646CA207862532078622046E5
:1011100000F006FE18B121680120042220E049EA0F
:101120000600144940EA0800084021680860886801
:1011300020F480208860D5E903028B6810431843AF
:101140008860C86820F08000C8608868800605D480
:10115000204600F011F821680028DDD1002001228E
:10116000FF234B62002121776277BDE8F08700BF43
:10117000F51C00087F7F7F00B0B504460068C16899
:1011800021F0A001C160FFF7C1F905462068C068E1
:10119000800644BF0020B0BDFFF7B8F9401BB0F592
:1011A0007A7F84BF0320B0BDF0E770B5C8B30026D6
:1011B00005464FF0000C866290F8510030B9284681
:1011C00085F8506000F030F8D5F828C0022185F885
:1011D000511029680A6822F040020A60D5E901230B
:1011E000D5E903041A4310436A6920431043AA69EE
:1011F00002F400731843EB6918432B6A184340EA62
:101200000C000860042000EA12406A6A104348603B
:10121000C86920F40060C86101206E6585F851003E
:1012200000E00126304670BD10B586B0044601A826
:101230001421FEF7FDFF21681448814223D10021CB
:10124000134A00F554400091536943F480535361AD
:10125000536903F480530093009B0091136843F09B
:1012600002031360126802F002020092009A052243
:1012700005920322CDE90312022102913821019146
:1012800001A9FFF771F806B010BD00BF00300140A2
:10129000303802407047704790F83C300222012BF2
:1012A00019D010B580F83D200268D2F804E0D2F8D9
:1012B00008C0D1E900342EF07001194351602CF0C0
:1012C0008001214391600022012180F83C2080F8B8
:1012D0003D10BDE8104010467047B0B110B504464F
:1012E00090F83D0028B9002084F83C00204600F02A
:1012F0000FF80220211D84F83D00206800F03AFE1E
:10130000012084F83D00002010BD0120704700003E
:10131000E0B500681449884210D0B0F1804F18BF82
:101320008CBD002001901148016841F0010101606D
:10133000006800F00100019001988CBD002000229F
:1013400000900A48016841F0080101600821006826
:1013500000F00800009000983220FFF757FA322082
:10136000BDE88C40FFF744BA000C00404038024012
:101370000068C16841F00101C160816801F00701A6
:1013800006291EBF016841F001010160002070477D
:1013900010B590F83C2004460220012A08BF10BD79
:1013A00084F83D0001204FF6777284F83C002068F5
:1013B00084465CF8083F23EA0202CCF800200B6860
:1013C0002BB1102B03D0202B18BF302B0FD1DCF802
:1013D000000020F07000184340F00700CCF8000037
:1013E0000020012184F83C0084F83D1010BD402B02
:1013F0001AD0502B26D0602B32D0B3F5005F3DD0F1
:10140000702BEDD1D1E90102C968104340EA0120F7
:10141000DCF8001021F47F410843CCF80000DCF830
:10142000000040F07700D9E74B68CA68194600F021
:1014300009FED4F800C05CF8080F40F0470020F027
:101440003000CBE74B68CA68194600F0FBFDD4F8C2
:1014500000C05CF8080F40F0570020F02000BDE706
:101460004B68CA68194600F0FEFDD4F800C05CF86D
:10147000080F40F0670020F01000AFE7D1E901024B
:10148000C968104340EA0120DCF8001021F47F41D4
:101490000843CCF80000DCF8000040F480409DE7F1
:1014A000704710B5044600680169890744BFC168E8
:1014B0005FEA817138D40169490744BFC1685FEAB6
:1014C00041713DD40169090744BFC1685FEA0171F8
:1014D00043D40169C90644BFC1685FEAC16148D409
:1014E0000169C9071CBFC1685FEAC1714ED10169BA
:1014F000090644BFC1685FEA01614FD4016949062A
:1015000044BFC1685FEA416150D40169890646BFA2
:10151000C1685FEA816110BD6FF020010161204662
:10152000BDE81040FFF7B7BE6FF002010161012175
:1015300021778069800741D02046FFF7B1FF43E063
:101540006FF00401016102212177806910F4407F6E
:101550003ED02046FFF7A4FF40E06FF00801016194
:1015600004212177C06980073CD02046FFF798FF0F
:101570003EE06FF01001016108212177C06910F48D
:10158000407F39D02046FFF78BFF3BE06FF0010131
:101590000161204600F03CF82068A8E76FF0800168
:1015A00001612046FFF776FE2068A7E76FF0400153
:1015B0000161204600F042F82068A6E7204600F0CE
:1015C00025F8204600F023F800202077206872E7F5
:1015D000204600F01BF8204600F019F80020207784
:1015E00020686FE7204600F011F8204600F00FF861
:1015F0000020207720686CE7204600F007F820469E
:1016000000F005F800202077206869E770477047F0
:10161000B0B504460068084DA84202D1FFF76AF849
:10162000206805F50061884218BFB0BD4FF48060A6
:10163000BDE8B04000F0ACBE000400407047704709
:1016400010B5D0F800E00446DEF80010DEF80C20FB
:10165000DEF814305FEA017C50D002F4907003F0A1
:101660000103C01852D0C8071FBF12F48070E06B8E
:1016700040F00100E063480704D51BB1E06B40F087
:101680000200E063880704D51BB1E06B40F0040062
:10169000E063BCF1000F04D51BB1E06B40F0080023
:1016A000E063E06B00286ED002EA0100800604D5FA
:1016B000204600F0FCFCD4F800E0DEF81400E16BFA
:1016C00000F0400001F0080140184CD0204600F026
:1016D000E1FC20684169490640D5416921F040019B
:1016E0004161606BD0B32F490165FEF72AFE0028E7
:1016F00049D0606B016DBDE81040084711408A0673
:1017000005D52046BDE8104000F0D1BC11400806C8
:101710000FD4480637D5DEF80C0020F04000CEF894
:101720000C00202084F839002046BDE8104000F06D
:101730007CB994F83900212825D1A068216AB0F538
:10174000805F16D108886FF35F20CEF8040020690F
:10175000002814BF481C881C20620FE02046BDE80A
:101760001040FFF76CBF2046FFF769FF0020E063E1
:1017700010BD481C20620878CEF80400E08C0138C7
:10178000E084000400D010BDDEF80C0020F08000E2
:10179000CEF80C00DEF80C0040F04000CEF80C0053
:1017A00010BD00BF8920000850B310B5044690F862
:1017B000390028B9002084F83800204600F022F8CB
:1017C000242084F839002068C16821F40051C160E8
:1017D000204600F0A9FC2068016921F490410161D4
:1017E000416921F02A014161C16841F40051C160A1
:1017F00000202021E06384F8391084F83A1010BDED
:101800000120704710B586B0044601A81421FEF7E8
:101810000FFD2168194881422DD10021B34A00F5FE
:1018200070400091536943F010035361536903F012
:1018300010030093009B0091116841F001011160B9
:10184000116801F001010091009907210591032120
:10185000049101210391022102914FF4C061019191
:1018600001A9FEF781FD252000210022FEF7CEFF11
:101870002520FEF7BDFF06B010BD00BF00100140DF
:10188000034690F83A00202806D10120E9B1E2B1E0
:1018900093F83800012801D1022070470020DA8532
:1018A000D8639A859962222183F8380083F83A1028
:1018B0001968CA6842F48072CA604A6942F001023B
:1018C0004A61CA6842F02002CA6070472049006835
:1018D0000968884218BF7047B0B51E4C6588FF2D57
:1018E00007D300204FF4807160801B48FEF7A0FCF6
:1018F00026E025B918484FF48071FEF799FC681C62
:101900001549608022784A5511FA80F212F8012CAC
:101910000A2A15D180B2084410F8020C0D280FD104
:10192000002060800C4C0DA0214600F0BFFE0EA1EF
:1019300020460322FEF787FC10B90CA000F0B6FE8B
:10194000034804490122BDE8B040FFF799BF00BF3A
:10195000B0070020100000208C0000207265636535
:101960006976653A2025730072756E007374617232
:1019700074207363616E0D0A200000002DE9F041B0
:10198000044690F8390020280AD10E46012000298B
:1019900049D01746002A46D094F83800012802D1D1
:1019A0000220BDE8F08100201D46E063012084F89C
:1019B0003800212084F83900FEF7A8FD8046E7842E
:1019C000A7841DE0E08C802142462B460138E0844C
:1019D0002046A76800F066FCB7F5805F0BD1C8B958
:1019E000318820686FF35F2141602069002814BFAF
:1019F0000136023604E068B9206816F8011B416020
:101A0000E08C0028DED12046402142462B4600F0E3
:101A100049FC10B10320BDE8F0810020202184F8AA
:101A2000380084F83910BDE8F0817047FEE7000007
:101A30002DE9F04186B000272C4801224FF4C06602
:101A4000012405970097016841F0040101600168D5
:101A500001F00401009100990097016841F0200114
:101A60000160016801F02001009100990097016870
:101A700041F080010160016801F08001009100994E
:101A80000097016841F001010160016801F0010166
:101A9000009100990097016841F0020101604FF444
:101AA000C061006800F0020000900098104800F546
:101AB000406580462846FEF724FD4046012100226D
:101AC000FEF71FFDCDE90347CDE9016401AE2846CD
:101AD0003146FEF749FC40463146CDE90347CDE9A2
:101AE0000144FEF741FC06B0BDE8F0813038024009
:101AF0000008024010B50C480C4B0D4C00224FF46E
:101B000080410262C0E90043C0E90222C0E9041238
:101B1000C0E90622FEF7FEFC002814BFBDE8104015
:101B200010BDFEF70DBC00BF44060020A0860100DA
:101B30000054004010B51048104C4FF482724FF41E
:101B4000007C4FF0010E02230021C0E900420A226E
:101B5000C0E90211C0E9043EC0E906C1C0E90811AC
:101B6000C0E90A12FFF721FB002814BFBDE81040AE
:101B700010BDFEF7E5BB00BF980600200030014015
:101B8000FEB5174800214FF0010C53234FF080425F
:101B9000CDE90411CDE902118161C0E90023C0E95A
:101BA000021C0161CDE90011FFF797FB08B1FEF7B8
:101BB000C7FB4FF4805002A902900948FFF7E8FBE9
:101BC00008B1FEF7BDFB00206946CDE900000448DE
:101BD000FFF762FB08B1FEF7B3FB06B080BD00BFA4
:101BE000F006002010B586B0E148164C002142F204
:101BF000107242F2CF03CDE90411CDE902118161E7
:101C0000C0E90043C0E902120161CDE90011FFF70C
:101C100064FB08B1FEF794FB4FF4805002A90290D8
:101C2000D348FFF7B5FB08B1FEF78AFB00206946F1
:101C3000CDE90000CE48FFF72FFB08B1FEF780FB8F
:101C400006B010BD000C004010B50B480B4C4FF413
:101C5000E13300210C22C0E90043C0E90211C0E9D0
:101C60000412C0E90611FFF79FFD002814BFBDE86C
:101C7000104010BDFEF764BBB0070020001001400B
:101C8000FEE77047000000000000000000000000B8
:101C9000EFF30980BFF36F8F154B1A681EF0100F1A
:101CA00008BF20ED108A20E9F04F10602DE90900EF
:101CB0004FF0A00080F31188BFF34F8FBFF36F8FF9
:101CC00000F058FC4FF0000080F31188BDE80900D7
:101CD00019680868B0E8F04F1EF0100F08BFB0ECAC
:101CE000108A80F30988BFF36F8F704700BF00BF71
:101CF00014000020014609284FF00A0328BF0921DB
:101D0000C94301440A31CAB2B2FBF3F202EB8203C7
:101D1000A1EB4303591A084440EA0210C0B27047CD
:101D2000B0B504460068C168490612D44FF0FF31CF
:101D3000C160FEF7EBFB054607E0FEF7E7FB401B43
:101D4000B0F57A7F84BF0320B0BD2068C06840062C
:101D5000F3D50020B0BD00002DE9F0412D4D044623
:101D6000984616460F46287808B900F0CDFA6869FB
:101D7000A0429CBF4FF0FF30BDE8F081069AEFF320
:101D800011804FF0200181F3118854B104EB44011C
:101D9000002305EBC1010B67C1E91876C1F8688023
:101DA000CB6604EB440105EBC1014A6780F311885F
:101DB0000020BDE8F08100BF2DE9F041154D04463B
:101DC000984616460F46287808B900F09DFA28690B
:101DD000A0429CBF4FF0FF30BDE8F081069AEFF3C0
:101DE00011804FF0200181F311884CB104EB4401C4
:101DF000002305EBC1018B62C1E90676C1E90883C6
:101E000004EB440105EBC101CA6280F31188002094
:101E1000BDE8F0818C0100200000000000000000FF
:101E2000074B19680868B0E8F04F80F30988BFF3E2
:101E30006F8F4FF0000080F31188704700BF00BF24
:101E40001400002080B54FF0A00080F31188BFF38C
:101E50006F8FBFF34F8F00F0B9FB18B103484FF0FD
:101E600080510160002080F3118880BD04ED00E006
:101E7000B0B596B00024244802250F94CDE90D4456
:101E8000CDE902440594016841F080510160006889
:101E900000F080500590059805941C48016841F4B5
:101EA00080410160006800F480400590059804209E
:101EB00015904FF4A87014951390082012904FF4C9
:101EC0008000CDE9105001200C904FF480300B9031
:101ED00005200A900AA8FEF74BFE4FF4805005211A
:101EE00009904FF4A05008900F20CDE906540590BA
:101EF00005A8FEF747FD4FF48070049001A80195F6
:101F0000FEF7B2FC16B0B0BD403802400070004091
:101F100010B50E480F4CD0F8801041F47001C0F895
:101F200080100B490A6842F001020A6000228A60B0
:101F30000B6823400B60084B4B600B6823F4802335
:101F40000B60CA604FF00061016010BD08ED00E059
:101F500000380240FFFFF6FE103000240148FFF772
:101F6000A0BA00BF300700200148FFF79ABA00BFAF
:101F7000700700200268B0F1804F0ED0264B9842C7
:101F80000BD0264B984208D0254B984205D0254BC4
:101F9000984202D0244B984203D14B6822F0700241
:101FA0001A43B0F1804F20D01B4B98421DD01B4BE1
:101FB00098421AD01A4B984217D01C4B984214D012
:101FC0001B4B984211D01B4B98420ED0164B984297
:101FD0000BD0144B984208D0174B984205D0174BA2
:101FE000984202D0164B984203D1CB6822F440723B
:101FF0001A434B6922F080021A430A4B02608A6836
:10200000C2620A68826240F480629A4204BF09692F
:102010000163012141617047000400400008004055
:10202000000C004000040140000001400018004086
:10203000001C0040002000400040014000480140DA
:1020400000440140D0F820C0036A23F0010303627A
:10205000836923F0F00343EA021282612CF00A0242
:10206000114301627047036A23F01003036283691E
:1020700023F4704343EA0232036A826123F0A00230
:1020800042EA011101627047806B0021C185C18461
:10209000FFF7D5BA0168CA6822F49072CA604A692B
:1020A00022F001024A61202180F83A10704790F82E
:1020B0003A10222918BF70478168B1F5805F08D1B6
:1020C00002680369816A526883B1D2B221F8012B98
:1020D00010E0026901684968002A826A02F101037E
:1020E000836218BF01F07F01117004E06FF35F227B
:1020F00021F8022B8162C18D0139C185090400D00C
:1021000070470168CA6822F02002CA60CA6822F4D7
:102110008072CA604A6922F001024A61202180F877
:102120003A10FFF7D3BB00002DE9F04704460068E2
:1021300049F20C650169E26821F4405111430161E3
:10214000A168D4E90423E769C6681143AE43B7F533
:10215000004F41EA030141EA070141EA0601C1607B
:102160004169A26921F4407141EA020141614A4991
:1021700040F480603FD188420CBFDFF820A1DFF837
:1021800020A1D047D4F804908046D047676806461F
:10219000D047616819257F00684306FB05F34900B5
:1021A000B3FBF7F3B0FBF1F06421B0FBF1F202FBFB
:1021B0001102181A4FEA49031044322202EBC00000
:1021C0004FF4F872B0FBF1F002EA400008FB05F2B0
:1021D000B2FBF3F2B2FBF1F100EB0116D0476168FC
:1021E00068434900B0FBF1F7D047616868430722B4
:1021F000032349003CE0884214BFDFF8A4A0DFF8C5
:102200009CA0D047D4F804908046D0476768064623
:10221000D04761681925BF00684306FB05F38900B4
:10222000B3FBF7F3B0FBF1F06421B0FBF1F202FB7A
:102230001102181A4FEA89031044322202EB0010EF
:1022400008FB05F2B0FBF1F0B2FBF3F200F0F00096
:10225000B2FBF1F100EB0116D047616868438900D9
:10226000B0FBF1F7D047616868430F22042389006F
:10227000B0FBF1F0391A6427B0FBF7F505FB170046
:102280000844216898403230B0FBF7F010403043EA
:102290008860BDE8F08700BF00140140F10A000823
:1022A000DD0A00082DE9F0411D4690460F46044620
:1022B0005E1C206801683940B94204BF0020BDE8B7
:1022C000F081002EF5D035B1FEF720F9A0EB080023
:1022D000A842EED92068C16821F4D071C16041697B
:1022E00021F0010141612020002184F8390084F8A7
:1022F000381084F83A000320BDE8F0818448FFF7E5
:102300009FB900BFFEE70000B0B51148114A002197
:10231000DFF844E0124D032310244FF4806C8162F7
:10232000C0F803200D4AC0E918258466C162C0E9DF
:102330000433C0E9062E0B4AC0E908C1C0E91C11EC
:10234000C0F80720084A0260C16620218171B0BD33
:102350008C01002047455200440200208C2B0008CD
:1023600034020020525454005345474710B5074CDF
:1023700000F00F03044AB0F1FF3F2344C8BF8318A5
:102380000801187010BD00BF00E400E014ED00E08B
:1023900001460148FEF7AEB80014024010B586B001
:1023A00001A81421FDF744FF2248234C0021FF22FD
:1023B0007F23C0E90041C0E90232C0E90411816114
:1023C0000091FEF7B5FD08B1FDF7BAFF19480021ED
:1023D0000024FEF739FD41F21231884203D11EA0DC
:1023E00000F0B6FB23E015A000F0B2FB4020CDE9E1
:1023F000044401A901228DF8060043F21250ADF801
:1024000004000C48FEF746FE08B1FDF799FF11489D
:102410006946012200900748FEF7E4FD08B1FDF788
:102420008FFF0448002141F21232FEF712FD06B080
:1024300010BD00BF54080020002800405254432023
:102440006973206E6F7420696E697469616C696567
:1024500072740D00020507135254432069732069FA
:102460006E697469616C696572740D00E0B5019004
:10247000274801A901224FF6FF73FFF77FFA019861
:1024800002B080BD82B0FEF741F9FFF7F1FC0024F5
:1024900015A10020002200230094FFF78DFC14A159
:1024A0000020002200230094FFF756FCFFF7C0FA3B
:1024B000FFF7CAFBFFF71EFBFFF762FBFFF792FB7C
:1024C000FFF738FBFFF76AFF0BA000F041FBFDF7B9
:1024D000F9FEFDF715FF0E480E490122FFF7D0F96E
:1024E0000D48FEF745FFFEE75254545550000000DA
:1024F000525454444F574E0053544D3332463430A7
:10250000375A472050726F6A6563740D00000000EF
:10251000B007002010000020700700206148016A09
:10252000096821B1016AC968C968496801E04FF0CA
:10253000FF31C162704700BFD0E9013201699A6082
:10254000826853604B68834208BF4A600022026180
:102550000868013808600868704742684A609368F4
:102560008B60936859609160086101680131016076
:10257000704700004B48816911B101210163704728
:102580000021494A01634168B1FA81F1C9B2C1F140
:102590001F0101EB810152F821306BB102EB810286
:1025A00052F8041F4968131D1160994204BF49681D
:1025B0001160C968016070474FF0A00080F3118876
:1025C000BFF36F8FBFF34F8FFEE700BF2DE9F047DA
:1025D000344EB06920B1706B00240130706343E069
:1025E000F06910F1010AC6F81CA044D0F06A00247A
:1025F00082452FD3DFF8B0904FF0010823E0306A16
:10260000C068C7683D4655F8040F824521D3284667
:10261000FFF792FFB86A18B107F11800FFF78CFFB7
:10262000F86A726808FA00F100EB8000114309EBC8
:10263000800071602946FFF790FFF86A3168C96A27
:10264000884228BF4446306A00680028D7D14FF03E
:10265000FF30F06230681449C06A00EB800051F826
:102660002000012888BF0124306B002818BF0124F6
:102670002046BDE8F087306A006840B14FF0A00006
:1026800080F31188BFF36F8FBFF34F8FFEE7306A7F
:10269000716A31627062B06B0130B063FFF73EFF68
:1026A000A4E700BF14000020F00700200FB4054B82
:1026B00010B503A9044A029800F018F810BC5DF8A0
:1026C00014FB00006D2400080000002002E008C890
:1026D000121F08C1002AFAD170477047002001E09C
:1026E00001C1121F002AFBD1704700002DE9FF4FE6
:1026F0008DB00F460546002606E025280BD0DDE903
:102700000F1290476D1C761C28780028F5D111B067
:102710003046BDE8F08F0024A246A1460122EC49D4
:1027200000E0044315F8013F203B02FA03F00842A1
:10273000F7D128782A2810D06FF02F022878A0F13E
:102740003001092914D80AEB8A0102EB410144F057
:10275000020400EB010A6D1CF0E701CF5FEA000AFA
:1027600003D544F40054CAF1000A44F002046D1C7D
:1027700028782E2817D115F8010F44F004042A28D0
:102780000ED06FF02F022878A0F1300109290AD865
:1027900009EB890102EB410100EB01096D1CF2E735
:1027A00057F8049B6D1C28786C280FD006DC4C2849
:1027B00017D068280DD06A2814D104E0742810D0EE
:1027C0007A280FD10DE044F400140AE044F4801498
:1027D00001E044F440146978814202D104F5801488
:1027E0006D1C6D1C2A786E2A1FD00CDC632A31D038
:1027F00004DC002A8BD0582A11D1A3E0642A68D0C7
:10280000692A0CD165E0732A2ED004DC6F2A73D0BC
:10281000702A04D19BE0752A6FD0782A6ED01046BA
:10282000DDE90F129047761C50E1C4F302500228F4
:1028300006D0032809D0042801CF09D0066045E15D
:1028400001CFF117C0E9006140E101CF06803DE111
:1028500006703BE117F8040B8DF8000000208DF89E
:102860000100EB46012003E057F804BB4FF0FF30B6
:1028700061074FF0000102D40DE008F10101884624
:1028800049450FDA8045F8DB1BF808100029F4D120
:1028900008E008F1010188468142FADB1BF80810C4
:1028A0000029F6D1DDE90F23AAEB08008146214675
:1028B00000F036F9304400EB080604E0DDE90F12C1
:1028C0001BF8010B9047B8F10108F7D221464846A2
:1028D000F7E00A21C4F302534FF0000B0891022BDA
:1028E00004D001CFC117032B09D00AE0FF1D27F048
:1028F0000707F7E8020108E032E01FE020E000B23D
:10290000C117042B01D140B2C117031E71F100039E
:1029100007DA4FF0000CD0EB0C006CEB01012D231B
:1029200002E0230504D52B238DF82430012303E096
:10293000E30701D02023F7E7984658E00A2110E08A
:1029400010210EE010204FF0000B08900CE0102139
:102950004FF0000B44F004044FF00809089103E025
:1029600008214FF0000B0891C4F30253022B04D04E
:1029700001CF0021032B06D006E0FF1D27F007073B
:10298000F7E8020103E080B2042B00D1C0B24FF09F
:10299000000823072BD5702A07D0DDF820C08CF063
:1029A000100C5CEA0B0C05D00EE040238DF82430AF
:1029B000012308E050EA010306D030238DF82430CB
:1029C0008DF8252002239846DDF820C08CF0080CF5
:1029D0005CEA0B0C0BD150EA010301D1630706D569
:1029E00030238DF824304FF00108A9F10109582A4D
:1029F00004D038A20B9208AA0A920BE03AA2F9E797
:102A00005B46089AFDF7DCFB0B9B9B5C0A9A521E07
:102A10000A92137050EA0102F2D10A98ADEB00005D
:102A200000F1200B600702D524F4803401E04FF060
:102A30000109D94502DDA9EB0B0000E0002000EB05
:102A40000B0141440890AAEB010AE00306D4DDE93A
:102A50000F232146504600F063F806444FF000096A
:102A600008E009A911F80900DDE90F12904709F102
:102A70000109761CC145F4DBE0030CD5DDE90F2329
:102A80002146504600F04CF8064404E0DDE90F1200
:102A900030209047761C0899481E08900029F5DCE4
:102AA00008E00A980A990078491C0A91DDE90F129A
:102AB0009047761CBBF10001ABF1010BF1DC214624
:102AC0005046DDE90F2300F019F806446D1C1BE6A3
:102AD00009280100303132333435363738396162F4
:102AE00063646566000000003031323334353637B8
:102AF0003839414243444546000000002DE9F04189
:102B0000044600251E461746880404D405E03946CD
:102B10002020B0476D1C641EF9D52846BDE8F08121
:102B20002DE9F041044600251E469046C80301D514
:102B3000302700E02027880404D505E041463846C8
:102B4000B0476D1C641EF9D52846BDE8F081000031
:102B500010B5044601E0FFF789FC14F8010B0449A5
:102B60000028F8D1BDE810400A20FFF77FBC000024
:102B7000000000200000000000000000010203042B
:102B80000607080900000000010203045465726D85
:102B9000696E616C00000000B82B00080000002086
:102BA00010000000CC260008C82B000810000020F0
:102BB000680C0000DC260008000000000100000096
:082BC00010000000007A030A76
:040000050800018965
:00000001FF
