:020000040800F2
:10000000D04200209D01000833140008711200083E
:1000100031140008A902000831190008000000008E
:10002000000000000000000000000000B114000803
:10003000AB0200080000000041140008D5140008BD
:10004000B7010008B7010008B7010008B7010008B0
:10005000B7010008B7010008B7010008B7010008A0
:10006000B7010008B7010008B7010008B701000890
:10007000B7010008B7010008B7010008B701000880
:10008000B7010008B7010008B7010008B701000870
:10009000B7010008B7010008B7010008B701000860
:1000A000B7010008D9150008B7010008B70100081A
:1000B000B7010008B7010008B7010008B701000840
:1000C000B7010008B7010008B7010008B701000830
:1000D000B701000829190008B7010008B701000896
:1000E000B7010008B7010008B7010008B701000810
:1000F000B7010008B7010008B7010008B701000800
:10010000B7010008B7010008B7010008B7010008EF
:10011000B7010008B7010008B7010008B7010008DF
:10012000B7010008B7010008B7010008B7010008CF
:10013000B7010008B7010008B7010008B7010008BF
:10014000B7010008B7010008B7010008B7010008AF
:10015000B7010008B7010008B7010008B70100089F
:10016000B7010008B7010008B7010008B70100088F
:10017000B7010008B7010008B7010008000000003F
:10018000B7010008B7010008DFF80CD000F07AF8DA
:10019000004800470D1A0008D0420020064880475A
:1001A00006480047FEE7FEE7FEE7FEE7FEE7FEE75C
:1001B000FEE7FEE7FEE7FEE78D150008890100086F
:1001C0002DE9F05F0546002092469B46884606468C
:1001D000814640241BE0284641464746224600F01F
:1001E00041F853465A46C01A914110D31146184659
:1001F000224600F028F82D1A67EB01084F462246E8
:100200000120002100F01FF817EB00094E41201ECD
:10021000A4F10104DFDC484631462A464346BDE8E6
:10022000F09FD2B201E000F8012B491EFBD27047CB
:100230000022F6E710B513460A4604461946FFF7B2
:10024000F0FF204610BD202A04DB203A00FA02F11C
:10025000002070479140C2F1200320FA03F31943B4
:1002600090407047202A04DB203A21FA02F0002156
:10027000704721FA02F3D040C2F1200291400843B6
:1002800019467047064C074D06E0E06840F0010350
:1002900094E8070098471034AC42F6D3FFF778FF94
:1002A0002C1F00084C1F0008FEE770477047000035
:1002B000B3F5804F16D1B0B550F822300C4C03EA9C
:1002C000040CD1E90043D1E902E5896944EA0C0450
:1002D00044EA031343EA0E2343EA05431943BDE806
:1002E000B04001E06FF0704140F8221000207047EC
:1002F0000000F0CF2DE9F043D1E900C901F110076A
:10030000D1E902E8164BF0CF50F82C20BEF1080FCF
:1003100002EA030242EA090242EA0E0242EA080243
:1003200042EA040242EA050242EA060242EA0702FF
:1003300001F12007F8CFC96B42EA030242EA040246
:1003400042EA050242EA060241EA020141EA0701E5
:1003500008BF41F0400140F82C100020BDE8F083B8
:100360008000F0FFF0B500EB820001F10C060D4FAC
:10037000426891E8085070CE896907EB055502F094
:1003800040421A4342EA0C1242EA0E2242EA044276
:100390002A43114306F1FE0241EA02614160002056
:1003A000F0BD00BF0000F0FF90F83510022909D120
:1003B000052180F835100068016821F00101016015
:1003C000002070478021416501207047B0B5044688
:1003D00000F0D6F805467048611C007818BF044448
:1003E00000F0CEF8401BA042FAD3B0BD2DE9F84F83
:1003F0005B4A4FF0080A4FF0010B4FF000084FF036
:10040000000E9042574A08BF4FF0070A02444FEAD5
:10041000B223072B38BF4FEAB22A0022102A08BFA6
:10042000BDE8F88F0B680BFA02F6334200F09180BA
:100430004B6843F01004122C13D16FF003040EF03C
:100440001C030F2704EA520507FA03FC05442C6A33
:1004500024EA0C0C0C6904FA03F343EA0C032B6244
:100460004B68032703F00305122B07FA08F407680B
:1004700005FA08F56FEA040C27EA040747EA0507BE
:10048000076013D80BFA03F414F0061F0ED084682B
:10049000CD6804EA0C0405FA08F52C438460C3F324
:1004A000001445689440B5432C434460C4688D688B
:1004B000DB0004EA0C0705FA08F547EA0507C76000
:1004C00047D50023284C0EF00C0500935C4BA44646
:1004D0001F461B6843F480433B603B6803F4804342
:1004E000009322F003032344214C009FA1461F598F
:1004F0000F24AC400AFA05F5A7432F4343F80970CF
:10050000DCF800304D6843EA0607EC0358BF23EAE5
:100510000607CCF80070AC03DCF8043043EA0607A9
:1005200058BF23EA0607CCF80470EC02DCF8083068
:1005300043EA060758BF23EA06070C4BCCF80870BD
:10054000AD021C461B6843EA060758BF23EA0607AC
:10055000276008F102080EF1040E01325EE700BFC9
:10056000001C02400000FEBF003C01400C3C01406A
:1005700008FCFFFF002A08BF0904816170470000E2
:1005800006480068704700BF0348044900780A68BD
:1005900010440860704700BF04000020C80200201B
:1005A00080B50B48016841F400710160016841F4B5
:1005B00080610160016841F480710160032000F0F6
:1005C0008FF8002000F006F800F042F8002080BD0F
:1005D000003C0240B0B586B001461920002200243C
:1005E00000F060F8192000F04FF8154801940168F8
:1005F00041F0010101606946006800F001000190CE
:10060000019801A800F00CF900F030F90F4D4000FE
:100610000C490D4B40F2E732B0FBF5F00138C1E96F
:1006200000300846C1E902420C6100F051FB08B1FC
:10063000012002E0034800F066FB06B0B0BD00BF39
:1006400044380240E00100200000014040420F0019
:1006500082B000200B4901904A6842F480424A600F
:100660004A6802F480420192019A0090086840F0C2
:1006700080500860086800F080500090009802B038
:10068000704700BF40380240002808DB00F01F011F
:100690000122400902FA01F1014A42F82010704794
:1006A00000E100E080B5144B1B68C3F3022CBCF1E1
:1006B000030E8CF007034FF0FF3C38BF4FF0000EE5
:1006C000042B28BF04230CFA03F399430CFA0EF30E
:1006D00001FA0EF19A431143BDE8804001F02AB9B6
:1006E00005494FF6FF030A681A4060F30A220348DF
:1006F00010430860704700BF0CED00E00000FA05F1
:100700002DE9F041002800F08380434B04468846E1
:10071000D3F8000400F00F00884207D283F8008469
:10072000D3F8000400F00F00404571D12068810724
:1007300011D5410742BF996841F4E0519960010722
:1007400042BF996841F4604199609968A26821F0BC
:10075000F00111439960C0072AD06068811E022908
:1007600003D21968890109D452E0012803D119681C
:10077000890303D44CE01968890749D599681D4657
:1007800021F0030108439860FFF7FAFE064641F2A4
:100790008837A86861682B4600F00C00B0EB810F29
:1007A00006D0FFF7EDFE801BB842F2D9032430E0FB
:1007B000D3F8000400F00F00404507D983F8008407
:1007C000D3F8000400F00F00404521D12068410714
:1007D00005D59968E26821F4E0511143996000075A
:1007E00006D59868216920F4604040EAC10098600D
:1007F0001C4600F04BF8A168084A0024C1F303111D
:10080000515CC8401E4908600020FFF7E3FE00E08D
:1008100001242046BDE8F08100380240141F000882
:100820000F220260174A136803F003034360136842
:1008300003F0F0038360136803F4E053C3604FF4E4
:10084000E053D2F800C003EADC030361D2F8F803F6
:1008500000F00F000860704709480A490A4A00681A
:100860000968C1F38221515CC840704704480549BA
:10087000054A00680968C1F34231515CC8407047BD
:100880000C00002008380240241F000810B5144C4A
:10089000606800F00C011348082904D0042904BF43
:1008A000114810BD10BD2168236801F03F02216886
:1008B0005B02C1F3881105D4A1FB00010023FFF7FF
:1008C0007FFC03E008484843B0FBF2F021680222B5
:1008D000C1F3014102EB4101B0FBF1F010BD00BFDB
:1008E000043802400024F40000127A002DE9FC4193
:1008F000002800F0058104460078AF4EC0072FD0D5
:10090000B06800F00C00042823D0B06800F00C00A0
:10091000082802D1706840021BD46768B7F5803F91
:1009200007D03068B7F5A02F40F00B8140F480204D
:100930003060306840F480303060FFF721FE0546BB
:10094000306880030CD4FFF71BFE401B6428F7D9E6
:100950009DE03068800303D56068002800F0D080F7
:10096000207880072BD5B06810F00C0F07D0B06846
:1009700000F00C00082809D17068400206D43068E5
:10098000800715D5E068012812D0B9E0E1688B48EE
:1009900000297ED001210160FFF7F2FD0546306895
:1009A000800705D4FFF7ECFD401B0228F7D96EE065
:1009B0003068216920F0F80040EAC10030602078FA
:1009C000000721D5606978B17C480121C0F8801EFC
:1009D000FFF7D6FD0546706F800715D4FFF7D0FDF1
:1009E000401B0228F7D952E074480021C0F8801E4D
:1009F000FFF7C6FD0546706F800705D5FFF7C0FD00
:100A0000401B0228F7D942E02078400770D5306CAF
:100A10004FF00008C0000CD4CDF804804FF001085E
:100A2000306C40F080503064306C00F080500190A9
:100A30000198634F3868C0050FD4386840F480705F
:100A40003860FFF79DFD05463868C00505D4FFF7FF
:100A500097FD401B0228F7D919E0A768012F05D0A0
:100A6000306F052F25D140F004003067306F40F023
:100A700001003067FFF784FD054641F28837306F8B
:100A800080072ED4FFF77CFD401BB842F7D9032026
:100A900037E000210160FFF773FD054630688007ED
:100AA0007FF58DAFFFF76CFD411B03200229F5D9BF
:100AB00027E020F001003067306F20F0040030673D
:100AC000FFF75EFD0546002FD7D141F28837306F22
:100AD000800706D5FFF754FD411B0320B942F6D924
:100AE0000FE0B8F1000F1EBF306C20F08050306472
:100AF000A769002F5DD0B06800F00C00082803D172
:100B0000012002B0BDE8F0812C490020884608662B
:100B1000FFF736FD0546022F09D13068800128D540
:100B2000FFF72EFD411B03200229F6D9E9E73068C3
:100B300080013ED5FFF724FD411B03200329F6D396
:100B4000DFE720F480303060306820F480203060AF
:100B5000FFF716FD0546002F7FF4F2AE30688003E4
:100B60007FF5FEAEFFF70CFD411B03206429F5D98C
:100B7000C7E704F11C078FCF0843D90340EA82106E
:100B80004FF6FF72914340EA0760A1F580310843B8
:100B900070600120C8F86000FFF7F2FC044630687E
:100BA000800106D4FFF7ECFC011B03200229F6D9D3
:100BB000A7E70020A5E700BF003802400000474239
:100BC0000070004030B370B5044690F849001546F7
:100BD0000E4628B9002084F84800204600F01CF892
:100BE000206804F10801FFF785FB2068A268314600
:100BF000FFF7B8FBD4E90102236B2946FFF758FB46
:100C00002068A16850F8212042F0010240F821201C
:100C1000002070BD012070472DE9F04F87B002A879
:100C20001421FFF705FB25480178002943D1012154
:100C30004FF00009234C244F02AD4FF00C084FF049
:100C4000030B02264FF4805A01701D48CDF8049022
:100C5000016841F0010101602946006800F00100CF
:100C600001900198CDF81880CDE9049B0396CDF84A
:100C700008A004F50060B8474FF6807002A9CDF8CF
:100C8000188081E8410A04F580602946B8474CF293
:100C9000337002A9CDF8188081E8410A2046294620
:100CA000B84704F540602946CDF81880CDE9049B8B
:100CB000CDE902A6B84707B0BDE8F08F8C00002050
:100CC00038380240000C0240ED03000870477047BE
:100CD000B0B110B5044690F83D0028B9002084F862
:100CE0003C00204600F00EF80220211D84F83D0053
:100CF000206800F077FC012084F83D00002010BD42
:100D00000120704770470068C16841F00101C1606F
:100D1000816801F0070106291EBF016841F0010149
:100D2000016000207047704710B5044600680169F3
:100D3000890744BFC1685FEA817138D401694907F6
:100D400044BFC1685FEA41713DD40169090744BFEE
:100D5000C1685FEA017143D40169C90644BFC16833
:100D60005FEAC16148D40169C9071CBFC1685FEA75
:100D7000C1714ED10169090644BFC1685FEA0161D2
:100D80004FD40169490644BFC1685FEA416150D44C
:100D90000169890646BFC1685FEA816110BD6FF0D5
:100DA000200101612046BDE81040FFF790BF6FF0C1
:100DB00002010161012121778069800741D020462D
:100DC000FFF7B1FF43E06FF00401016102212177D9
:100DD000806910F4407F3ED02046FFF7A4FF40E03A
:100DE0006FF00801016104212177C06980073CD0C0
:100DF0002046FFF798FF3EE06FF0100101610821E7
:100E00002177C06910F4407F39D02046FFF78BFF6F
:100E10003BE06FF001010161204600F03DF82068E1
:100E2000A8E76FF0800101612046FFF74FFF2068BF
:100E3000A7E76FF040010161204600F037F8206815
:100E4000A6E7204600F025F8204600F023F8002011
:100E50002077206872E7204600F01BF8204600F05B
:100E600019F80020207720686FE7204600F011F87D
:100E7000204600F00FF80020207720686CE720461D
:100E800000F007F8204600F005F8002020772068E1
:100E900069E770477047000000680349884208BF4F
:100EA000FFF772BB704700BF0000014070477047FA
:100EB00010B5D0F800E00446DEF80010DEF80C2093
:100EC000DEF814305FEA017C50D002F4907003F039
:100ED0000103C01852D0C8071FBF12F48070E06B26
:100EE00040F00100E063480704D51BB1E06B40F01F
:100EF0000200E063880704D51BB1E06B40F00400FA
:100F0000E063BCF1000F04D51BB1E06B40F00800BA
:100F1000E063E06B00286ED002EA0100800604D591
:100F2000204600F0DAFBD4F800E0DEF81400E16BB4
:100F300000F0400001F0080140184CD0204600F0BD
:100F4000BFFB20684169490640D5416921F0400155
:100F50004161606BD0B32F490165FFF725FA002886
:100F600049D0606B016DBDE81040084711408A060A
:100F700005D52046BDE8104000F0AFBB1140080683
:100F80000FD4480637D5DEF80C0020F04000CEF82C
:100F90000C00202084F839002046BDE8104000F005
:100FA00066B994F83900212825D1A068216AB0F5E6
:100FB000805F16D108886FF35F20CEF804002069A7
:100FC000002814BF481C881C20620FE02046BDE8A2
:100FD0001040FFF76CBF2046FFF769FF0020E06379
:100FE00010BD481C20620878CEF80400E08C01385F
:100FF000E084000400D010BDDEF80C0020F080007A
:10100000CEF80C00DEF80C0040F04000CEF80C00EA
:1010100010BD00BFB516000850B310B5044690F8D7
:10102000390028B9002084F83800204600F022F862
:10103000242084F839002068C16821F40051C1607F
:10104000204600F087FB2068016921F4904101618E
:10105000416921F02A014161C16841F40051C16038
:1010600000202021E06384F8391084F83A1010BD84
:101070000120704710B586B0044601A81421FFF77F
:10108000D7F82168E94881422DD10021D84A00F5DE
:1010900070400091536943F010035361536903F0AA
:1010A00010030093009B0091116841F00101116051
:1010B000116801F0010100910099072105910321B8
:1010C000049101210391022102914FF4C061019129
:1010D00001A9FFF78BF9252007210022FFF7E2FA8B
:1010E0002520FFF7D1FA06B010BD00BF034690F8E7
:1010F0003A00202806D10120E9B1E2B193F8380086
:10110000012801D1022070470020DA85D8639A8532
:101110009962222183F8380083F83A101968CA6866
:1011200042F48072CA604A6942F001024A61CA68A8
:1011300042F02002CA6070471B4900680968884273
:1011400018BF7047B0B5194C6588FF2D07D3002034
:101150004FF4807160801648FFF76AF81CE025B9EB
:1011600013484FF48071FFF763F8681C10496080E2
:1011700022784A5511FA80F212F8012C0A2A0BD172
:1011800080B2084410F8020C0D2805D1002008494F
:10119000608008A000F02CFD034804490122BDE84E
:1011A000B040FFF7A3BF00BF2002002010000020C6
:1011B00090000020726563656976653A20257300AA
:1011C0002DE9F041044690F8390020280AD10E4656
:1011D0000120002949D01746002A46D094F838004B
:1011E000012802D10220BDE8F08100201D46E06305
:1011F000012084F83800212084F83900FFF7C0F975
:101200008046E784A7841DE0E08C802142462B467F
:101210000138E0842046A76800F05AFBB7F5805FEC
:101220000BD1C8B9318820686FF35F214160206914
:10123000002814BF0136023604E068B9206816F8A9
:10124000011B4160E08C0028DED12046402142464F
:101250002B4600F03DFB10B10320BDE8F0810020DB
:10126000202184F8380084F83910BDE8F0817047F7
:10127000FEE7000010B5034C20800120FFF7A6F820
:10128000608810BD7E00006C10B58EB01C481D4CEF
:101290004FF02041002206234FF0100C0DF1140EE8
:1012A000C0E90014C0E902324FF480414FF480538A
:1012B000C0E9042CC0E906224264C0E90822C0E962
:1012C0000A32C0E90C1211213C230D9282630C9169
:1012D000CDE90A2C09930F230893AEE80E000821EC
:1012E000CDE9032C6A46CDE901310921009107A916
:1012F000FFF768FC08B1FEF7D9FF0EB010BD00BFC4
:1013000090010020040100A02DE9F04387B00027E0
:10131000374801224FF4C0660124069701970168FF
:1013200041F004010160016801F00401019101999B
:101330000197016841F020010160016801F020017E
:10134000019101990197016841F0800101600168F4
:1013500001F08001019101990197016841F01001AC
:101360000160016801F01001019101990197016884
:1013700041F008010160016801F008010191019943
:101380000197016841F001010160016801F001016C
:10139000019101990197016841F0400101604FF40A
:1013A000C061006800F0400001900198114800F50C
:1013B000406581462846FFF7DDF8484604210122B2
:1013C0004FF00408FFF7D6F8CDE90447CDE90264F1
:1013D00002AE28463146FFF709F848463146CDE9C6
:1013E0000447CDE90284FFF701F807B0BDE8F083B8
:1013F000303802400008024010B50B480B4C4FF447
:10140000E13300210C22C0E90043C0E90211C0E928
:101410000412C0E90611FFF7FFFD002814BFBDE864
:10142000104010BDFEF742BF200200200010014016
:10143000FEE7704700000000000000000000000010
:10144000EFF30980BFF36F8F154B1A681EF0100F72
:1014500008BF20ED108A20E9F04F10602DE9090047
:101460004FF0500080F31188BFF34F8FBFF36F8FA1
:1014700000F022FB4FF0000080F31188BDE8090066
:1014800019680868B0E8F04F1EF0100F08BFB0EC04
:10149000108A80F30988BFF36F8F704700BF00BFC9
:1014A0001400002000000000000000000000000008
:1014B000074B19680868B0E8F04F80F30988BFF35C
:1014C0006F8F4FF0000080F31188704700BF00BF9E
:1014D0001400002080B54FF0500080F31188BFF356
:1014E0006F8FBFF34F8F00F013FB18B103484FF01D
:1014F00080510160002080F3118880BD04ED00E080
:10150000B0B592B000241F480225CDE90A44CDE9C8
:1015100008440194016841F080510160006800F0C6
:1015200080500190019801941748016841F480416E
:101530000160006800F4804001900198042011903F
:101540004FF4A87010950F9008200E904FF4800073
:10155000CDE90C504FF4803007900120069006A88A
:10156000FFF7C4F94FF48050052105904FF4A050C7
:1015700004900F20CDE90254019001A8FFF7C0F8B4
:1015800012B0B0BD403802400070004010B50E48A7
:101590000F4CD0F8801041F47001C0F880100B4956
:1015A0000A6842F001020A6000228A600B68234048
:1015B0000B60084B4B600B6823F480230B60CA6000
:1015C0004FF00061016010BD08ED00E000380240FE
:1015D000FFFFF6FE103000240148FFF7A5BB00BF57
:1015E000E00100200268B0F1804F0ED0264B9842F7
:1015F0000BD0264B984208D0254B984205D0254B5E
:10160000984202D0244B984203D14B6822F07002DA
:101610001A43B0F1804F20D01B4B98421DD01B4B7A
:1016200098421AD01A4B984217D01C4B984214D0AB
:101630001B4B984211D01B4B98420ED0164B984230
:101640000BD0144B984208D0174B984205D0174B3B
:10165000984202D0164B984203D1CB6822F44072D4
:101660001A434B6922F080021A430A4B02608A68CF
:10167000C2620A68826240F480629A4204BF0969C9
:1016800001630121416170470004004000080040EF
:10169000000C004000040140000001400018004020
:1016A000001C004000200040004001400048014074
:1016B00000440140806B0021C185C184FFF7F7BB66
:1016C0000168CA6822F49072CA604A6922F0010275
:1016D0004A61202180F83A10704790F83A10222988
:1016E00018BF70478168B1F5805F08D1026803694F
:1016F000816A526883B1D2B221F8012B10E00269ED
:1017000001684968002A826A02F10103836218BFF6
:1017100001F07F01117004E06FF35F2221F8022BCA
:101720008162C18D0139C185090400D0704701680B
:10173000CA6822F02002CA60CA6822F48072CA60B5
:101740004A6922F001024A61202180F83A10FFF72D
:10175000F3BC00002DE9F0470446006849F20C652F
:101760000169E26821F4405111430161A168D4E9A3
:101770000423E769C6681143AE43B7F5004F41EA59
:10178000030141EA070141EA0601C1604169A2691A
:1017900021F4407141EA020141614A4940F480600C
:1017A0003FD188420CBFDFF820A1DFF820A1D0474D
:1017B000D4F804908046D04767680646D0476168F1
:1017C00019257F00684306FB05F34900B3FBF7F3D7
:1017D000B0FBF1F06421B0FBF1F202FB1102181A28
:1017E0004FEA49031044322202EBC0004FF4F87272
:1017F000B0FBF1F002EA400008FB05F2B2FBF3F2A5
:10180000B2FBF1F100EB0116D04761686843490073
:10181000B0FBF1F7D0476168684307220323490012
:101820003CE0884214BFDFF8A4A0DFF89CA0D047BA
:10183000D4F804908046D04767680646D047616870
:101840001925BF00684306FB05F38900B3FBF7F3D6
:10185000B0FBF1F06421B0FBF1F202FB1102181AA7
:101860004FEA89031044322202EB001008FB05F214
:10187000B0FBF1F0B2FBF3F200F0F000B2FBF1F1DB
:1018800000EB0116D047616868438900B0FBF1F7AF
:10189000D047616868430F2204238900B0FBF1F050
:1018A000391A6427B0FBF7F505FB170008442168D7
:1018B00098403230B0FBF7F0104030438860BDE80C
:1018C000F08700BF001401406D08000859080008A7
:1018D0002DE9F0411D4690460F4604465E1C2068E7
:1018E00001683940B94204BF0020BDE8F081002EF4
:1018F000F5D035B1FEF744FEA0EB0800A842EED9C2
:101900002068C16821F4D071C160416921F00101F2
:1019100041612020002184F8390084F8381084F8CF
:101920003A000320BDE8F0815248FFF7C1BA00BF7A
:10193000FEE7000010B5074C00F00F03044AB0F1B9
:10194000FF3F2344C8BF83180801187010BD00BFB3
:1019500000E400E014ED00E0B0B5FFF795FC104C9A
:101960004FF4803020603220FEF730FD0020FFF77A
:1019700081FC0C4D014628800BA000F039F9288825
:1019800049F22531884206D110A000F0B1FA4FF497
:1019900008102060B0BD08A0BDE8B04000F0A8BAB3
:1019A0007E00006C600200206C63642069643D303E
:1019B0007825780D0A0000006C636420696420219A
:1019C0003D3078393332352121210D007772697429
:1019D00065206C636420696E697420646174610DB4
:1019E0000000000081B202480022FEF7C3BD00BF24
:1019F00000140240E0B501901E4801A901224FF6F3
:101A0000FF73FFF7DDFB019802B080BDFEF7C8FD54
:101A1000FFF776FDFFF778FCFFF7EEFC00F024F807
:101A20004FF48060FFF7DEFF02A000F061FAFFF7DD
:101A300093FFFEE753544D3332463430375A472034
:101A40004465762D426F6172640D00006648016A3C
:101A5000096821B1016AC968C968496801E04FF0A5
:101A6000FF31C162704700BF024803490122FFF7FE
:101A70003DBB00BF2002002010000020D0E9013251
:101A800001699A60826853604B68834208BF4A606C
:101A900000220261086801380860086870474268DF
:101AA0004A6093688B60936859609160086101682F
:101AB00001310160704700004B48816911B101217B
:101AC000016370470021494A01634168B1FA81F11D
:101AD000C9B2C1F11F0101EB810152F821306BB194
:101AE00002EB810252F8041F4968131D11609942EC
:101AF00004BF49681160C968016070474FF0500029
:101B000080F31188BFF36F8FBFF34F8FFEE700BFE5
:101B10002DE9F047344EB06920B1706B00240130DC
:101B2000706343E0F06910F1010AC6F81CA044D0CC
:101B3000F06A002482452FD3DFF8B0904FF00108FF
:101B400023E0306AC068C7683D4655F8040F8245F7
:101B500021D32846FFF792FFB86A18B107F11800A1
:101B6000FFF78CFFF86A726808FA00F100EB80005A
:101B7000114309EB800071602946FFF790FFF86A76
:101B80003168C96A884228BF4446306A0068002824
:101B9000D7D14FF0FF30F06230681449C06A00EBD3
:101BA000800051F82000012888BF0124306B0028F4
:101BB00018BF01242046BDE8F087306A006840B1B4
:101BC0004FF0500080F31188BFF36F8FBFF34F8F3A
:101BD000FEE7306A716A31627062B06B0130B063E7
:101BE000FFF734FFA4E700BF1400002064020020C8
:101BF0000FB4054B10B503A9044A029800F018F879
:101C000010BC5DF814FB0000F5190008000000206E
:101C100002E008C8121F08C1002AFAD170477047B5
:101C2000002001E001C1121F002AFBD17047000013
:101C30002DE9FF4F8DB09B460F460446002606E077
:101C400025280BD05A460F999047641C761C2078A3
:101C50000028F5D111B03046BDE8F08F0025A84628
:101C60000122984900E0054314F8013F203B02FAA5
:101C700003F00842F7D120782E2817D114F8010F6D
:101C800045F004052A280ED06FF02F022078A0F12D
:101C9000300109290AD808EB880102EB410100EB69
:101CA0000108641CF2E757F8048B641C20786C2848
:101CB0000DD004DC4C2812D06A2811D104E074281D
:101CC0000DD07A280CD10AE045F4001507E06178C0
:101CD00045F48015814202D1641C05F58015641C11
:101CE0002278692A45D008DC002AB3D0582A69D066
:101CF000632A10D0642A08D13BE0702A67D0732A87
:101D000013D0752A5CD0782A5CD010465A460F99B9
:101D10009047761CD3E017F8040B8DF800000020E4
:101D20008DF80100E946012003E057F8049B4FF0CD
:101D3000FF3069074FF0000501D40AE06D1C4545EE
:101D40000DDA8542FADB19F805100029F6D106E014
:101D50006D1C8542FCDB19F805100029F8D12E44D2
:101D600004E019F8010B5A460F9990476D1EF8D2FE
:101D7000A5E00A200021CDE90801C5F302500228A0
:101D80000DD001CFC117031E71F100030DDA4FF022
:101D9000000CD0EB0C006CEB01012D2308E0FF1DC3
:101DA00027F00707F7E80201EDE72B0504D52B2301
:101DB0008DF8283001233BE0EB0739D02023F7E7EB
:101DC0000A2000E010200021CDE9080107E01020E2
:101DD000002145F00405CDE908014FF00808C5F3DE
:101DE000025002280FD001CF00214FF0000A2B072C
:101DF0001FD5702A0DD0DDE908C38CF0100C5CEA09
:101E0000030C0CD015E0FF1D27F00707F7E80201CF
:101E1000EBE740228DF828204FF0010A0BE050EA52
:101E2000010306D030238DF828308DF829200223B5
:101E30009A46582A04D024A20DF120090B9209E0F9
:101E400026A2F9E7DDE90823FEF7BAF90B9B9B5CB4
:101E500009F8013D50EA0102F4D1ADEB0900203050
:101E60000890680701D44FF001080899884502DD01
:101E7000A8EB010000E000208046002506E00AA84B
:101E80005A46405D0F9990476D1C761C5545F6DB10
:101E900004E030205A460F999047761CB8F10001B3
:101EA000A8F10108F5DC05E019F8010B5A460F9975
:101EB0009047761C0899481E08900029F4DC641CA1
:101EC000C5E6000009280100303132333435363799
:101ED0003839616263646566000000003031323376
:101EE0003435363738394142434445460000000016
:101EF00010B5044601E0FFF77DFD14F8010B04491D
:101F00000028F8D1BDE810400A20FFF773BD00009B
:101F10000000002000000000000000000102030497
:101F2000060708090000000001020304501F000812
:101F30000000002010000000101C0008601F0008B6
:101F400010000020C0420000201C0008000000001B
:101F50000000000001000000100000000024F40058
:040000050800018965
:00000001FF
