:020000040800F2
:10000000580500209D010008370F0008810E0008E8
:10001000350F0008C5020008991200080000000012
:100020000000000000000000000000003B0F00087E
:10003000C702000800000000390F00083D0F00084B
:10004000B7010008B7010008B7010008B7010008B0
:10005000B7010008B7010008B7010008B7010008A0
:10006000B7010008B7010008B7010008B701000890
:10007000B7010008B7010008B7010008B701000880
:10008000B7010008B7010008B7010008B701000870
:10009000B7010008B7010008B7010008B701000860
:1000A000B7010008B7010008B7010008B701000850
:1000B000B7010008B7010008B7010008B701000840
:1000C000B7010008B7010008B7010008B701000830
:1000D000B70100088D120008B7010008B701000839
:1000E000B7010008B7010008B7010008B701000810
:1000F000B7010008B7010008B7010008B701000800
:10010000B7010008B7010008B7010008B7010008EF
:10011000B7010008B7010008B7010008B7010008DF
:10012000B7010008B7010008B7010008B7010008CF
:10013000B7010008B7010008B7010008B7010008BF
:10014000B7010008B7010008B7010008B7010008AF
:10015000B7010008B7010008B7010008B70100089F
:10016000B7010008B7010008B7010008B70100088F
:10017000B7010008B7010008B7010008000000003F
:10018000B7010008B7010008DFF80CD000F088F8CC
:10019000004800470513000858050020064880471E
:1001A00006480047FEE7FEE7FEE7FEE7FEE7FEE75C
:1001B000FEE7FEE7FEE7FEE7CD0F00088901000835
:1001C0002DE9F05F0546002092469B46884606468C
:1001D000814640241BE0284641464746224600F01F
:1001E0004EF853465A46C01A914110D3114618464C
:1001F000224600F035F82D1A67EB01084F462246DB
:100200000120002100F02CF817EB00094E41201EC0
:10021000A4F10104DFDC484631462A464346BDE8E6
:10022000F09FD2B201E000F8012B491EFBD27047CB
:100230000022F6E710B513460A4604461946FFF7B2
:10024000F0FF204610BD30B504460020034600E014
:100250005B1C934203D2E05CCD5C401BF8D030BD08
:10026000202A04DB203A00FA02F100207047914076
:10027000C2F1200320FA03F3194390407047202A6B
:1002800004DB203A21FA02F00021704721FA02F340
:10029000D040C2F120029140084319467047000047
:1002A000064C074D06E0E06840F0010394E80700C3
:1002B00098471034AC42F6D3FFF76AFF9C1400084D
:1002C000BC140008FEE77047704790F8351002290B
:1002D00009D1052180F835100068016821F001017D
:1002E00001600020704780214165012070470000B7
:1002F000B0B5044600F0DEF805469048611C007871
:1003000018BF044400F0D6F8401BA042FAD3B0BD99
:100310002DE9F84F5B4A4FF0080A4FF0010B4FF000
:1003200000084FF0000E9042574A08BF4FF0070AEE
:1003300002444FEAB223072B38BF4FEAB22A002209
:10034000102A08BFBDE8F88F0B680BFA02F633429B
:1003500000F091804B6843F01004122C13D16FF021
:1003600003040EF01C030F2704EA520507FA03FCEE
:1003700005442C6A24EA0C0C0C6904FA03F343EAE2
:100380000C032B624B68032703F00305122B07FABB
:1003900008F4076805FA08F56FEA040C27EA040771
:1003A00047EA0507076013D80BFA03F414F0061F99
:1003B0000ED08468CD6804EA0C0405FA08F52C43D5
:1003C0008460C3F3001445689440B5432C434460F3
:1003D000C4688D68DB0004EA0C0705FA08F547EAF3
:1003E0000507C76047D50023284C0EF00C05009385
:1003F000284BA4461F461B6843F480433B603B6880
:1004000003F48043009322F003032344224C009F13
:10041000A1461F590F24AC400AFA05F5A7432F4304
:1004200043F80970DCF800304D6843EA0607EC0336
:1004300058BF23EA0607CCF80070AC03DCF80430A0
:1004400043EA060758BF23EA0607CCF80470EC021B
:10045000DCF8083043EA060758BF23EA06070C4BCE
:10046000CCF80870AD021C461B6843EA060758BF6B
:1004700023EA0607276008F102080EF1040E013294
:100480005EE700BF001C02400000FEBF003C0140D0
:100490000C3C01404438024008FCFFFF42690A401E
:1004A0008A4208BF090481617047002A08BF090415
:1004B0008161704705480068704700BF1F480349C5
:1004C00000780A6810440860704700BF540100209B
:1004D00080B50B48016841F400710160016841F486
:1004E00080610160016841F480710160032000F0C7
:1004F0006FF8002000F006F800F022F8002080BD20
:10050000003C024070B50D4E04464FF47A713078CD
:10051000B1FBF0F088490968B1FBF0F000F0AEFAE9
:1005200001250F2C08D838B94FF0FF3021460022A2
:10053000002500F02FF87460284670BD04000020EC
:1005400082B000200B4901904A6842F480424A6020
:100550004A6802F480420192019A0090086840F0D3
:1005600080500860086800F080500090009802B049
:10057000704700BF40380240002808DB00F01F0130
:100580000122400902FA01F1014A42F820107047A5
:1005900000E100E080B5144B1B68C3F3022CBCF1F2
:1005A000030E8CF007034FF0FF3C38BF4FF0000EF6
:1005B000042B28BF04230CFA03F399430CFA0EF31F
:1005C00001FA0EF19A431143BDE8804000F066BE87
:1005D00005494FF6FF030A681A4060F30A220348F0
:1005E00010430860704700BF0CED00E00000FA0502
:1005F0002DE9F041002800F08380434B04468846F3
:10060000D3F8000400F00F00884207D283F800847A
:10061000D3F8000400F00F00404571D12068810735
:1006200011D5410742BF996841F4E0519960010733
:1006300042BF996841F4604199609968A26821F0CD
:10064000F00111439960C0072AD06068811E022919
:1006500003D21968890109D452E0012803D119682D
:10066000890303D44CE01968890749D599681D4668
:1006700021F0030108439860FFF71CFF064641F292
:100680008837A86861682B4600F00C00B0EB810F3A
:1006900006D0FFF70FFF801BB842F2D9032430E0E9
:1006A000D3F8000400F00F00404507D983F8008418
:1006B000D3F8000400F00F00404521D12068410725
:1006C00005D59968E26821F4E0511143996000076B
:1006D00006D59868216920F4604040EAC10098601E
:1006E0001C4600F02FF8A168084A0024C1F303114A
:1006F000515CC840104908600020FFF703FF00E08C
:1007000001242046BDE8F08100380240841400082E
:1007100009480A490A4A00680968C1F38221515C04
:10072000C840704704480549054A00680968C1F394
:100730004231515CC84070470C000020083802402C
:100740009414000810B5144C606800F00C011348B4
:10075000082904D0042904BF114810BD10BD216828
:10076000236801F03F0221685B02C1F3881105D4C0
:10077000A1FB00010023FFF723FD03E008484843E5
:10078000B0FBF2F021680222C1F3014102EB41010A
:10079000B0FBF1F010BD00BF043802400024F400AB
:1007A00000127A002DE9FC41002800F00581044682
:1007B0000078AF4EC0072FD0B06800F00C000428BE
:1007C00023D0B06800F00C00082802D17068400205
:1007D0001BD46768B7F5803F07D03068B7F5A02F06
:1007E00040F00B8140F480203060306840F480306D
:1007F0003060FFF75FFE0546306880030CD4FFF7DA
:1008000059FE401B6428F7D99DE03068800303D56A
:100810006068002800F0D080207880072BD5B06871
:1008200010F00C0F07D0B06800F00C00082809D1B8
:100830007068400206D43068800715D5E06801284A
:1008400012D0B9E0E1688B4800297ED00121016017
:10085000FFF730FE05463068800705D4FFF72AFE13
:10086000401B0228F7D96EE03068216920F0F800BB
:1008700040EAC10030602078000721D5606978B176
:100880007C480121C0F8801EFFF714FE0546706FFA
:10089000800715D4FFF70EFE401B0228F7D952E05F
:1008A00074480021C0F8801EFFF704FE0546706FF3
:1008B000800705D5FFF7FEFD401B0228F7D942E06F
:1008C0002078400770D5306C4FF00008C0000CD481
:1008D000CDF804804FF00108306C40F08050306457
:1008E000306C00F0805001900198634F3868C0056B
:1008F0000FD4386840F480703860FFF7DBFD0546A0
:100900003868C00505D4FFF7D5FD401B0228F7D98C
:1009100019E0A768012F05D0306F052F25D140F0D1
:1009200004003067306F40F001003067FFF7C2FD10
:10093000054641F28837306F80072ED4FFF7BAFDA5
:10094000401BB842F7D9032037E000210160FFF7D0
:10095000B1FD0546306880077FF58DAFFFF7AAFD32
:10096000411B03200229F5D927E020F00100306760
:10097000306F20F004003067FFF79CFD0546002F24
:10098000D7D141F28837306F800706D5FFF792FD47
:10099000411B0320B942F6D90FE0B8F1000F1EBF8A
:1009A000306C20F080503064A769002F5DD0B068B3
:1009B00000F00C00082803D1012002B0BDE8F0814E
:1009C0002C49002088460866FFF774FD0546022F73
:1009D00009D13068800128D5FFF76CFD411B032049
:1009E0000229F6D9E9E7306880013ED5FFF762FDBC
:1009F000411B03200329F6D3DFE720F48030306069
:100A0000306820F480203060FFF754FD0546002F49
:100A10007FF4F2AE306880037FF5FEAEFFF74AFD4B
:100A2000411B03206429F5D9C7E704F11C078FCFC8
:100A30000843D90340EA82104FF6FF72914340EA1F
:100A40000760A1F58031084370600120C8F860009C
:100A5000FFF730FD04463068800106D4FFF72AFD19
:100A6000011B03200229F6D9A7E70020A5E700BF54
:100A7000003802400000474200700040411E002044
:100A8000B0EB116F1CBF01207047044AF023516086
:100A900003490B70072190601160704710E000E07F
:100AA00023ED00E07047000010B5D0F800E00446E8
:100AB000DEF80010DEF80C20DEF814305FEA017C6E
:100AC00050D002F4907003F00103C01852D0C80750
:100AD0001FBF12F48070E06B40F00100E063480734
:100AE00004D51BB1E06B40F00200E063880704D539
:100AF0001BB1E06B40F00400E063BCF1000F04D5D3
:100B00001BB1E06B40F00800E063E06B00286ED0A2
:100B100002EA0100800604D5204600F090FAD4F8DD
:100B200000E0DEF81400E16B00F0400001F0080185
:100B300040184CD0204600F075FA206841694906FB
:100B400040D5416921F040014161606BD0B32F492C
:100B50000165FFF7BAFB002849D0606B016DBDE865
:100B60001040084711408A0605D52046BDE81040D0
:100B700000F065BA114008060FD4480637D5DEF8F4
:100B80000C0020F04000CEF80C00202084F8390042
:100B90002046BDE8104000F072B994F839002128D1
:100BA00025D1A068216AB0F5805F16D108886FF35F
:100BB0005F20CEF804002069002814BF481C881C60
:100BC00020620FE02046BDE81040FFF76BBF2046D3
:100BD000FFF768FF0020E06310BD481C2062087822
:100BE000CEF80400E08C0138E084000400D010BD91
:100BF000DEF80C0020F08000CEF80C00DEF80C00CF
:100C000040F04000CEF80C0010BD00BF19100008E5
:100C100050B310B5044690F8390028B9002084F884
:100C20003800204600F022F8242084F8390020689B
:100C3000C16821F40051C160204600F03DFA2068EF
:100C4000016921F490410161416921F02A0141616A
:100C5000C16841F40051C16000202021E06384F8A4
:100C6000391084F83A1010BD0120704710B586B0D5
:100C7000044601A81421FFF7DBFA2168AC48814241
:100C80002DD100219B4A00F570400091536943F03B
:100C900010035361536903F010030093009B00910C
:100CA000116841F001011160116801F0010100912A
:100CB000009907210591032104910121039102214B
:100CC00002914FF4C061019101A9FFF721FB25209A
:100CD00000210022FFF75EFC2520FFF74DFC06B047
:100CE00010BD00BF034690F83A00202806D101202D
:100CF000E9B1E2B193F83800012801D10220704730
:100D00000020DA85D8639A859962222183F8380019
:100D100083F83A101968CA6842F48072CA604A6956
:100D200042F001024A61CA6842F02002CA6070477C
:100D3000B0B51D4C6588FF2D07D300204FF480719E
:100D400060801A48FFF774FA26E025B917484FF477
:100D50008071FFF76DFA681C1449608022784A554B
:100D600011FA80F212F8012C0A2A15D180B2084437
:100D700010F8020C0D280FD1002060800B4C0CA045
:100D8000214600F0E3FA0DA120460322FFF75BFAAB
:100D900010B90BA000F0DAFA644803490122BDE85B
:100DA000B040FFF79FBF00BF1000002014000020DC
:100DB000726563656976653A2025730072756E0009
:100DC0000D0A207374617274207363616E000000F9
:100DD0002DE9F041044690F8390020280AD10E464A
:100DE0000120002949D01746002A46D094F838003F
:100DF000012802D10220BDE8F08100201D46E063F9
:100E0000012084F83800212084F83900FFF752FBD4
:100E10008046E784A7841DE0E08C802142462B4673
:100E20000138E0842046A76800F004FAB7F5805F37
:100E30000BD1C8B9318820686FF35F214160206908
:100E4000002814BF0136023604E068B9206816F89D
:100E5000011B4160E08C0028DED120464021424643
:100E60002B4600F0E7F910B10320BDE8F081002027
:100E7000202184F8380084F83910BDE8F0817047EB
:100E8000FEE70000F0B587B000251A481A4C012291
:100E90004FF4C066012706950195016841F02001D5
:100EA0000160016801F0200101910199019501683B
:100EB00041F080010160016801F080010191019918
:100EC0000195016841F0010101604FF4C0610068C3
:100ED00000F00100019001982046FFF7E6FA02A910
:100EE0002046CDE90475CDE90267FFF711FA07B096
:100EF000F0BD00BF303802400014024010B5E54894
:100F00000B4C4FF4E13300210C22C0E90043C0E94F
:100F10000211C0E90412C0E90611FFF779FE0028AA
:100F200014BFBDE8104010BDFFF7CEB9140100207A
:100F300000100140FEE7704770477047FFF7BEBAE8
:100F4000B0B592B000241F480225CDE90A44CDE98E
:100F500008440194016841F080510160006800F08C
:100F600080500190019801941748016841F4804134
:100F70000160006800F48040019001980420119005
:100F80004FF4A87010950F9008200E904FF4800039
:100F9000CDE90C504FF4803007900120069006A850
:100FA000FFF700FC4FF48050052105904FF4A0504E
:100FB00004900F20CDE90254019001A8FFF718FB1F
:100FC00012B0B0BD403802400070004010B50E486D
:100FD0000F4CD0F8801041F47001C0F880100B491C
:100FE0000A6842F001020A6000228A600B6823400E
:100FF0000B60084B4B600B6823F480230B60CA60C6
:101000004FF00061016010BD08ED00E000380240C3
:10101000FFFFF6FE10300024806B0021C185C184E3
:10102000FFF740BD0168CA6822F49072CA604A693D
:1010300022F001024A61202180F83A10704790F8AE
:101040003A10222918BF70478168B1F5805F08D136
:1010500002680369816A526883B1D2B221F8012B18
:1010600010E0026901684968002A826A02F10103FE
:10107000836218BF01F07F01117004E06FF35F22FB
:1010800021F8022B8162C18D0139C185090400D08C
:1010900070470168CA6822F02002CA60CA6822F458
:1010A0008072CA604A6922F001024A61202180F8F8
:1010B0003A10FFF73DBE00002DE9F04704460068F6
:1010C00049F20C650169E26821F440511143016164
:1010D000A168D4E90423E769C6681143AE43B7F5B4
:1010E000004F41EA030141EA070141EA0601C160FC
:1010F0004169A26921F4407141EA020141614A4912
:1011000040F480603FD188420CBFDFF820A1DFF8B7
:1011100020A1D047D4F804908046D047676806469F
:10112000D047616819257F00684306FB05F3490035
:10113000B3FBF7F3B0FBF1F06421B0FBF1F202FB7B
:101140001102181A4FEA49031044322202EBC00080
:101150004FF4F872B0FBF1F002EA400008FB05F230
:10116000B2FBF3F2B2FBF1F100EB0116D04761687C
:1011700068434900B0FBF1F7D04761686843072234
:10118000032349003CE0884214BFDFF8A4A0DFF845
:101190009CA0D047D4F804908046D04767680646A4
:1011A000D04761681925BF00684306FB05F3890035
:1011B000B3FBF7F3B0FBF1F06421B0FBF1F202FBFB
:1011C0001102181A4FEA89031044322202EB001070
:1011D00008FB05F2B0FBF1F0B2FBF3F200F0F00017
:1011E000B2FBF1F100EB0116D0476168684389005A
:1011F000B0FBF1F7D047616868430F2204238900F0
:10120000B0FBF1F0391A6427B0FBF7F505FB1700C6
:101210000844216898403230B0FBF7F0104030436A
:101220008860BDE8F08700BF001401402507000872
:10123000110700082DE9F0411D4690460F4604466F
:101240005E1C206801683940B94204BF0020BDE837
:10125000F081002EF5D035B1FFF72CF9A0EB080096
:10126000A842EED92068C16821F4D071C1604169FB
:1012700021F0010141612020002184F8390084F827
:10128000381084F83A000320BDE8F0812948FFF7C0
:101290000BBC00BF14010020FEE7000010B5074C96
:1012A00000F00F03044AB0F1FF3F2344C8BF831886
:1012B0000801187010BD00BF00E400E014ED00E06C
:1012C00070B5144605464E0006E0284600F008F8C2
:1012D0002046FFF70DF8013E002EF6D170BD00004C
:1012E00001460148FFF7DAB800140240E0B501906A
:1012F000104801A901224FF6FF73FFF769FD01981D
:1013000002B080BDFFF7E4F8FFF71AFEFFF7BAFD61
:10131000FFF7F4FD074808490122FFF7E3FC07A0A7
:1013200000F09EF84FF480600A214FF49672FFF7A8
:10133000C7FFFEE7140100201000002048656C6C18
:101340006F2053544D333246343037000FB4054BC1
:1013500010B503A9044A029800F017F810BC5DF814
:1013600014FB0000ED1200080000002002E008C895
:10137000121F08C1002AFAD170477047002001E00F
:1013800001C1121F002AFBD170472DE9F84F994681
:10139000924688460546002706E025280AD0514691
:1013A0004A4690476D1C7F1C28780028F5D13846A6
:1013B000BDE8F88F002315F8011F18462E2915D116
:1013C00015F8011F04232A290DD06FF02F02297868
:1013D000A1F13004092C09D800EB800002EB400099
:1013E00008446D1CF3E758F8040B6D1C2A78002A9A
:1013F000DDD0632A07D0732A0FD0104651464A46E3
:1014000090477F1C2AE018F8042B8DF8002000215B
:101410008DF801106E46012103E058F8046B4FF07F
:10142000FF315A074FF0000401D409E0641C8442E4
:101430000BDA8C42FADB325D002AF7D105E0641C3E
:101440008C42FCDB305D0028F9D1274404E016F81B
:10145000010B51464A469047641EF8D26D1CA3E723
:1014600010B5044601E0FFF741FF14F8010B0449F1
:101470000028F8D1BDE810400A20FFF737BF000070
:101480000000002000000000000000000102030432
:10149000060708090000000001020304C014000848
:1014A00000000020100000006C130008D014000899
:1014B00010000020480500007C1300080000000018
:1014C0000000000001000000100000000024F400F3
:040000050800018965
:00000001FF
