:020000040800F2
:10000000484200209D010008E31700081D16000863
:10001000E1170008C50200086D1C00080000000080
:10002000000000000000000000000000111900089E
:10003000C702000800000000E517000813190008B7
:10004000B7010008B7010008B7010008B7010008B0
:10005000B7010008B7010008B7010008B7010008A0
:10006000B7010008B7010008B7010008B701000890
:10007000B7010008B7010008B7010008B701000880
:10008000B7010008B7010008B7010008B701000870
:10009000B7010008B7010008B7010008B701000860
:1000A000B7010008B7010008B7010008B701000850
:1000B000B7010008B7010008B7010008B701000840
:1000C000B7010008B7010008B7010008B701000830
:1000D000B7010008651C0008B7010008B701000857
:1000E000B7010008B7010008B7010008B701000810
:1000F000B7010008B7010008B7010008B701000800
:10010000B7010008B7010008B7010008B7010008EF
:10011000B7010008B7010008B7010008B7010008DF
:10012000B7010008B7010008B7010008B7010008CF
:10013000B7010008B7010008B7010008B7010008BF
:10014000B7010008B7010008B7010008B7010008AF
:10015000B7010008B7010008B7010008B70100089F
:10016000B7010008B7010008B7010008B70100088F
:10017000B7010008B7010008B7010008000000003F
:10018000B7010008B7010008DFF80CD000F088F8CC
:1001900000480047C91E0008484200200648804722
:1001A00006480047FEE7FEE7FEE7FEE7FEE7FEE75C
:1001B000FEE7FEE7FEE7FEE7A51900088901000853
:1001C0002DE9F05F0546002092469B46884606468C
:1001D000814640241BE0284641464746224600F01F
:1001E0004EF853465A46C01A914110D3114618464C
:1001F000224600F035F82D1A67EB01084F462246DB
:100200000120002100F02CF817EB00094E41201EC0
:10021000A4F10104DFDC484631462A464346BDE8E6
:10022000F09FD2B201E000F8012B491EFBD27047CB
:100230000022F6E710B513460A4604461946FFF7B2
:10024000F0FF204610BD30B504460020034600E014
:100250005B1C934203D2E05CCD5C401BF8D030BD08
:10026000202A04DB203A00FA02F100207047914076
:10027000C2F1200320FA03F3194390407047202A6B
:1002800004DB203A21FA02F00021704721FA02F340
:10029000D040C2F120029140084319467047000047
:1002A000064C074D06E0E06840F0010394E80700C3
:1002B00098471034AC42F6D3FFF76AFF602200087B
:1002C00080220008FEE77047704790F83510022939
:1002D00009D1052180F835100068016821F001017D
:1002E00001600020704780214165012070470000B7
:1002F000B0B5044600F0DEF80546ED48611C007814
:1003000018BF044400F0D6F8401BA042FAD3B0BD99
:100310002DE9F84F5B4A4FF0080A4FF0010B4FF000
:1003200000084FF0000E9042574A08BF4FF0070AEE
:1003300002444FEAB223072B38BF4FEAB22A002209
:10034000102A08BFBDE8F88F0B680BFA02F633429B
:1003500000F091804B6843F01004122C13D16FF021
:1003600003040EF01C030F2704EA520507FA03FCEE
:1003700005442C6A24EA0C0C0C6904FA03F343EAE2
:100380000C032B624B68032703F00305122B07FABB
:1003900008F4076805FA08F56FEA040C27EA040771
:1003A00047EA0507076013D80BFA03F414F0061F99
:1003B0000ED08468CD6804EA0C0405FA08F52C43D5
:1003C0008460C3F3001445689440B5432C434460F3
:1003D000C4688D68DB0004EA0C0705FA08F547EAF3
:1003E0000507C76047D50023284C0EF00C05009385
:1003F000284BA4461F461B6843F480433B603B6880
:1004000003F48043009322F003032344224C009F13
:10041000A1461F590F24AC400AFA05F5A7432F4304
:1004200043F80970DCF800304D6843EA0607EC0336
:1004300058BF23EA0607CCF80070AC03DCF80430A0
:1004400043EA060758BF23EA0607CCF80470EC021B
:10045000DCF8083043EA060758BF23EA06070C4BCE
:10046000CCF80870AD021C461B6843EA060758BF6B
:1004700023EA0607276008F102080EF1040E013294
:100480005EE700BF001C02400000FEBF003C0140D0
:100490000C3C01404438024008FCFFFF42690A401E
:1004A0008A4208BF090481617047002A08BF090415
:1004B000816170477F480068704700BFB0B520B3C6
:1004C000044690F83D0028B9002084F83C002046FE
:1004D00000F0AEF8242084F83D002068016821F087
:1004E0000101016000F008FA4C494D4B00224D4DCE
:1004F00088424FF0000138BF0121984238BF0122E5
:100500006368AB4238BF0A460AB10120B0BD464914
:10051000B0FBF1F221684D6825F03F0515434D60B1
:100520000D6A25F03F0C414DAB4213D80132013822
:1005300042EA0C020A625A004CF6FF73B0FBF2F07A
:1005400001306FF31F30042898BF0420CA6922EAE3
:10055000030C3AE04FF49675A0F1010E6A434FF494
:100560007A75B2FBF5F24CF6FF75013242EA0C02E5
:100570000A62CA6922EA050CA26842B11920042560
:100580005843BEFBF0F0013065F31F3006E003EB8B
:100590004300BEFBF0F001306FF31F30000509D0BF
:1005A00052B1192004225843BEFBF0F0013062F32F
:1005B0001F3008E0012008E003EB4300BEFBF0F031
:1005C00001306FF31F3040F4004040EA0C00C86176
:1005D0000868D4E9072320F0C000104348F2FF3236
:1005E0001843086088689043D4E9032318431043F4
:1005F0008860C868D4E9052320F0FF001043184341
:10060000C860086840F001000860002020212064D4
:1006100084F83D10206384F83E00B0BD80841E0045
:1006200000093D00A186010040420F00A0860100A4
:10063000B0B586B0044601A81421FFF7F9FD216882
:100640001548814225D10025144C00F5D83000957D
:10065000216841F002012160216801F0020100914E
:100660000099042105910321049101210391122194
:1006700002914FF44071019101A9FFF749FE0095E5
:10068000206940F400102061206900F400100090FF
:10069000009806B0B0BD00BF0054004030380240A2
:1006A0002048044900780A6810440860704700BF79
:1006B000040000204002002080B50B48016841F48E
:1006C00000710160016841F480610160016841F4DA
:1006D00080710160032000F06FF8002000F006F840
:1006E00000F022F8002080BD003C024070B50D4EA5
:1006F00004464FF47A713078B1FBF0F0884909680C
:10070000B1FBF0F000F056FD01250F2C08D838B9E8
:100710004FF0FF3021460022002500F02FF87460D2
:10072000284670BD0400002082B000200B490190D3
:100730004A6842F480424A604A6802F48042019268
:10074000019A0090086840F080500860086800F046
:1007500080500090009802B0704700BF40380240BF
:10076000002808DB00F01F010122400902FA01F114
:10077000014A42F82010704700E100E080B5144BB8
:100780001B68C3F3022CBCF1030E8CF007034FF07F
:10079000FF3C38BF4FF0000E042B28BF04230CFA97
:1007A00003F399430CFA0EF301FA0EF19A43114345
:1007B000BDE8804001F054BB05494FF6FF030A68CD
:1007C0001A4060F30A22034810430860704700BFD4
:1007D0000CED00E00000FA052DE9F041002800F0E2
:1007E0008380434B04468846D3F8000400F00F0092
:1007F000884207D283F80084D3F8000400F00F0089
:10080000404571D12068810711D5410742BF9968E1
:1008100041F4E0519960010742BF996841F4604199
:1008200099609968A26821F0F00111439960C007AE
:100830002AD06068811E022903D21968890109D46F
:1008400052E0012803D11968890303D44CE01968E8
:10085000890749D599681D4621F00301084398602E
:10086000FFF728FE064641F28837A86861682B46E4
:1008700000F00C00B0EB810F06D0FFF71BFE801BD1
:10088000B842F2D9032430E0D3F8000400F00F009E
:10089000404507D983F80084D3F8000400F00F0026
:1008A000404521D12068410705D59968E26821F4C7
:1008B000E05111439960000706D59868216920F43A
:1008C000604040EAC10098601C4600F02FF8A16823
:1008D000084A0024C1F30311515CC8401049086064
:1008E0000020FFF703FF00E001242046BDE8F0816F
:1008F000003802404822000809480A490A4A0068AC
:100900000968C1F38221515CC84070470448054919
:10091000054A00680968C1F34231515CC84070471C
:100920000C000020083802405822000810B5144C72
:10093000606800F00C011348082904D0042904BFA2
:10094000114810BD10BD2168236801F03F022168E5
:100950005B02C1F3881105D4A1FB00010023FFF75E
:100960002FFC03E008484843B0FBF2F02168022264
:10097000C1F3014102EB4101B0FBF1F010BD00BF3A
:10098000043802400024F40000127A002DE9FC41F2
:10099000002800F0058104460078AF4EC0072FD034
:1009A000B06800F00C00042823D0B06800F00C0000
:1009B000082802D1706840021BD46768B7F5803FF1
:1009C00007D03068B7F5A02F40F00B8140F48020AD
:1009D0003060306840F480303060FFF76BFD0546D2
:1009E000306880030CD4FFF765FD401B6428F7D9FD
:1009F0009DE03068800303D56068002800F0D08057
:100A0000207880072BD5B06810F00C0F07D0B068A5
:100A100000F00C00082809D17068400206D4306844
:100A2000800715D5E068012812D0B9E0E1688B484D
:100A300000297ED001210160FFF73CFD05463068AA
:100A4000800705D4FFF736FD401B0228F7D96EE07A
:100A50003068216920F0F80040EAC1003060207859
:100A6000000721D5606978B17C480121C0F8801E5B
:100A7000FFF720FD0546706F800715D4FFF71AFDBC
:100A8000401B0228F7D952E074480021C0F8801EAC
:100A9000FFF710FD0546706F800705D5FFF70AFDCB
:100AA000401B0228F7D942E02078400770D5306C0F
:100AB0004FF00008C0000CD4CDF804804FF00108BE
:100AC000306C40F080503064306C00F08050019009
:100AD0000198634F3868C0050FD4386840F48070BF
:100AE0003860FFF7E7FC05463868C00505D4FFF716
:100AF000E1FC401B0228F7D919E0A768012F05D0B7
:100B0000306F052F25D140F004003067306F40F082
:100B100001003067FFF7CEFC054641F28837306FA1
:100B200080072ED4FFF7C6FC401BB842F7D903203C
:100B300037E000210160FFF7BDFC05463068800703
:100B40007FF58DAFFFF7B6FC411B03200229F5D9D5
:100B500027E020F001003067306F20F0040030679C
:100B6000FFF7A8FC0546002FD7D141F28837306F38
:100B7000800706D5FFF79EFC411B0320B942F6D93A
:100B80000FE0B8F1000F1EBF306C20F080503064D1
:100B9000A769002F5DD0B06800F00C00082803D1D1
:100BA000012002B0BDE8F0812C490020884608668B
:100BB000FFF780FC0546022F09D13068800128D557
:100BC000FFF778FC411B03200229F6D9E9E73068DA
:100BD00080013ED5FFF76EFC411B03200329F6D3AD
:100BE000DFE720F480303060306820F4802030600F
:100BF000FFF760FC0546002F7FF4F2AE30688003FB
:100C00007FF5FEAEFFF756FC411B03206429F5D9A2
:100C1000C7E704F11C078FCF0843D90340EA8210CD
:100C20004FF6FF72914340EA0760A1F58031084317
:100C300070600120C8F86000FFF73CFC0446306893
:100C4000800106D4FFF736FC011B03200229F6D9E8
:100C5000A7E70020A5E700BF003802400000474298
:100C60000070004070B5C8B3002605464FF0000C78
:100C7000866290F8510030B9284685F8506000F03F
:100C800031F8D5F828C0022185F8511029680A6882
:100C900022F040020A60D5E90123D5E903041A4392
:100CA00010436A6920431043AA6902F40073184391
:100CB000EB6918432B6A184340EA0C0008600420D3
:100CC00000EA12406A6A10434860C86920F4006074
:100CD000C86101206E6585F8510000E001263046AC
:100CE00070BD000010B586B0044601A81421FFF7BE
:100CF0009FFA21681448814223D10021134A00F54C
:100D000054400091536943F480535361536903F491
:100D100080530093009B0091136843F0020313601B
:100D2000126802F002020092009A05220592032244
:100D3000CDE90312022102913821019101A9FFF7A7
:100D4000E7FA06B010BD00BF003001403038024065
:100D50002DE9F843044640681D4617460E46B0F597
:100D6000827F02D1A06800287AD094F85000012830
:100D700001D102207EE04FF0010984F85090FFF786
:100D800099FB804694F85100012862D10120002E81
:100D900060D0002F5ED0042084F8510000206065F0
:100DA000E787A787A663A0862063C4E91000E086D2
:100DB0006E1CA1682068B1F5004F02BF016821F4E4
:100DC00080410160016849065EBF016841F0400151
:100DD0000160E068A0B92CE020688168C90707D1EC
:100DE000FFF768FB66B1A0EB0800A84208D344E017
:100DF000C068A16B21F8020BA163E08F0138E08786
:100E0000E08F0028E8D117E020688168C90707D182
:100E1000FFF750FB6EB1A0EB0800A84209D32CE00D
:100E2000007BA16B0870A06B0130A063E08F0138DC
:100E3000E087E08F0028E7D120462946424600F0AF
:100E4000D2FC08B120206065606D002818BF012029
:100E500000E00220002184F8501084F8519009E04D
:100E60000420314632463B4684F851002046009526
:100E700000F0B6F801B0BDE8F0830320EAE72DE901
:100E8000F843044690F85000012801D10220A4E064
:100E90004FF001091D4616460F4684F85090FFF7A3
:100EA00009FB804694F85100012854D10120002FFD
:100EB00000F08E80002E00F08B80032084F851001B
:100EC00000206065E686A6862763A087A063C4E944
:100ED0001000E087A1682068B1F5004F02BF0168EB
:100EE00041F480410160016849065EBF016841F03C
:100EF000400101606268711EE368B1FA81F1B2FAE3
:100F000082F24909B3F5006F4FEA521241EA020139
:100F100023D131B137F8021BC1602763E08E01385D
:100F2000E0866E1C13E020688168890707D4FFF70C
:100F3000C1FA66B1A0EB0800A84208D347E0216BD4
:100F400031F8022BC2602163E08E0138E086E08E2A
:100F50000028E8D124E002203AE039B13978017361
:100F6000206B01302063E08E0138E0866E1C14E0B7
:100F700020688168890707D4FFF79CFA6EB1A0EB5F
:100F80000800A84209D322E0216B09780173206B85
:100F900001302063E08E0138E086E08E0028E7D142
:100FA00020462946424600F047FC08B120206065F3
:100FB000A06838B9002000902068C168009180685E
:100FC00000900098606D002818BF012000E0032009
:100FD000002184F8501084F8519001B0BDE8F083EE
:100FE0002DE9F843044690F85000012801D1022071
:100FF000C7E001201E4615460F4684F85000FFF753
:1010000059FA94F85110814601296BD10120002F23
:1010100000F0B180002D00F0AE80002E00F0AB801B
:1010200094F85100DDF8208004281CBF052084F8C6
:10103000510000206065E687A563A6872763C4E9A1
:101040001000A686E6862068016849065EBF016832
:1010500041F0400101606268711EE368B1FA81F1FC
:10106000B2FA82F24909B3F5006F4FEA521241EA2F
:10107000020145D131B137F8021BC1602763E08E10
:101080000138E086012608F10105E08E10B9E08FF5
:10109000002879D02068816889070CD5E18E012E5F
:1010A00009D141B1216B002631F8022BC2602163C6
:1010B000E18E0139E1868168C9070AD0E18F41B12B
:1010C000C068A16B012621F8020BA163E08F0138F3
:1010D000E087FFF7EFF9002DD7D0A0EB09004045DE
:1010E000D3D347E06068B0F5827F07D1022004299E
:1010F00041D1A16800293FF489AF3CE002203AE0E9
:1011000039B139780173206B01302063E08E0138EA
:10111000E086012608F10105E08E08B9E08F98B35A
:101120002068816889070ED5E18E012E0BD151B15F
:10113000216B002609780173216B2068013121633E
:10114000E18E0139E1868168C9070BD0E18F49B191
:10115000C068A16B01260870A06B0130A063E08F0E
:101160000138E087FFF7A6F9002DD5D0A0EB0900E4
:101170004045D1D30320002184F85010012184F888
:10118000511001B0BDE8F083204641464A4600F0C8
:1011900053FB18B1202060650120ECE7A168002016
:1011A0000029E8D100902168CA68009289680091FE
:1011B0000099E0E7411E0020B0EB116F1CBF012039
:1011C0007047044AF023516003490B700721906077
:1011D0001160704710E000E023ED00E07047000070
:1011E00010B5D0F800E00446DEF80010DEF80C2060
:1011F000DEF814305FEA017C50D002F4907003F006
:101200000103C01852D0C8071FBF12F48070E06BF2
:1012100040F00100E063480704D51BB1E06B40F0EB
:101220000200E063880704D51BB1E06B40F00400C6
:10123000E063BCF1000F04D51BB1E06B40F0080087
:10124000E063E06B00286ED002EA0100800604D55E
:10125000204600F0E0FBD4F800E0DEF81400E16B7B
:1012600000F0400001F0080140184CD0204600F08A
:10127000C5FB20684169490640D5416921F040011C
:101280004161606BD0B32F490165FFF71EF800285C
:1012900049D0606B016DBDE81040084711408A06D7
:1012A00005D52046BDE8104000F0B5BB114008064A
:1012B0000FD4480637D5DEF80C0020F04000CEF8F9
:1012C0000C00202084F839002046BDE8104000F0D2
:1012D000A4B994F83900212825D1A068216AB0F575
:1012E000805F16D108886FF35F20CEF80400206974
:1012F000002814BF481C881C20620FE02046BDE86F
:101300001040FFF76BBF2046FFF768FF0020E06347
:1013100010BD481C20620878CEF80400E08C01382B
:10132000E084000400D010BDDEF80C0020F0800046
:10133000CEF80C00DEF80C0040F04000CEF80C00B7
:1013400010BD00BFF119000850B310B5044690F865
:10135000390028B9002084F83800204600F022F82F
:10136000242084F839002068C16821F40051C1604C
:10137000204600F08DFB2068016921F49041016155
:10138000416921F02A014161C16841F40051C16005
:1013900000202021E06384F8391084F83A1010BD51
:1013A0000120704710B586B0044601A81421FEF74D
:1013B0003FFF20682C49884226D0FA49884250D104
:1013C0000020C64900900A6942F400220A610A69B5
:1013D00002F400220092009A0090086840F0010098
:1013E00008600868012100F00100009000980820C2
:1013F00005900320049003910221CDE901011B48CF
:1014000001A9FEF785FF2CE00020B44900904A694D
:1014100042F010024A614A6902F010020092009AFA
:101420000090086840F001000860086801A900F019
:1014300001000090009807200590032004900120EF
:101440000390022002904FF4C06001900748FEF71D
:101450005FFF252000210022FFF790F92520FFF7EC
:101460007FF906B010BD00BF00100140000002402F
:10147000034690F83A00202806D10120E9B1E2B1F4
:1014800093F83800012801D1022070470020DA8546
:10149000D8639A859962222183F8380083F83A103C
:1014A0001968CA6842F48072CA604A6942F001024F
:1014B0004A61CA6842F02002CA6070472049006849
:1014C0000968884218BF7047B0B51E4C6588FF2D6B
:1014D00007D300204FF4807160801B48FEF7A8FE00
:1014E00026E025B918484FF48071FEF7A1FE681C6C
:1014F0001549608022784A5511FA80F212F8012CC1
:101500000A2A15D180B2084410F8020C0D280FD118
:10151000002060800C4C0DA0214600F003FD0EA1C0
:1015200020460322FEF78FFE10B90CA000F0FAFC53
:10153000034804490122BDE8B040FFF799BF00BF4E
:10154000C0010020100000201400002072656365B7
:101550006976653A2025730072756E000D0A207356
:1015600074617274207363616E0000002DE9F041B4
:10157000044690F8390020280AD10E46012000299F
:1015800049D01746002A46D094F83800012802D1E5
:101590000220BDE8F08100201D46E063012084F8B0
:1015A0003800212084F83900FEF784FF8046E78464
:1015B000A7841DE0E08C802142462B460138E08460
:1015C0002046A76800F022FBB7F5805F0BD1C8B9B1
:1015D000318820686FF35F2141602069002814BFC3
:1015E0000136023604E068B9206816F8011B416034
:1015F000E08C0028DED12046402142462B4600F0F8
:1016000005FB10B10320BDE8F0810020202184F803
:10161000380084F83910BDE8F0817047FEE700001B
:101620002DE9F04186B000272C4801224FF4C06616
:10163000012405970097016841F0200101600168CD
:1016400001F02001009100990097016841F08001AC
:101650000160016801F08001009100990097016824
:1016600041F004010160016801F00401009100995A
:101670000097016841F001010160016801F001017A
:10168000009100990097016841F0020101604FF458
:10169000C061006800F0020000900098104800F55A
:1016A000406580462846FEF700FF404601210022A3
:1016B000FEF7FBFECDE90347CDE9016401AE284604
:1016C0003146FEF725FE40463146CDE90347CDE9D8
:1016D0000144FEF71DFE06B0BDE8F081303802403F
:1016E0000008024010B50C480C4B0D4C00224FF482
:1016F00080410262C0E90043C0E90222C0E904124D
:10170000C0E90622FEF7DAFE002814BFBDE810404B
:1017100010BDFEF7D9BD00BF14010020A086010056
:101720000054004010B51048104C4FF482724FF432
:10173000007C4FF0010E02230021C0E900420A2282
:10174000C0E90211C0E9043EC0E906C1C0E90811C0
:10175000C0E90A12FFF786FA002814BFBDE810405E
:1017600010BDFEF7B1BD00BF680100200030014090
:1017700010B50B480B4C4FF4E13300210C22C0E9AB
:101780000043C0E90211C0E90412C0E90611FFF7E5
:10179000DBFD002814BFBDE8104010BDFEF794BD6E
:1017A00000020020004C004010B50B480B4C4FF4D9
:1017B000E13300210C22C0E90043C0E90211C0E975
:1017C0000412C0E90611FFF7BFFD002814BFBDE8F1
:1017D000104010BDFEF778BDC00100200010014090
:1017E000FEE77047704710B50446406894460A46C5
:1017F000B0F5827F0ED1A068B0F5004F02D0B0F5F1
:10180000806F0AD12168B0F5806F0B6823F0400328
:101810000B6002D12046012101E020468021634671
:1018200000F036F800280FBF0020606D40F0200067
:10183000606518BF032010BD1CB50446124813464E
:101840000A4612490068B0FBF1F04FF47A71484340
:1018500001906068B0F5827F0AD12046802100F0B7
:1018600017F870B1606D40F020006065032009E05A
:10187000019830B101980138019020688068000615
:10188000F6D4002002B010BD0C00002000366E011E
:101890002DE9F041984616460F460446551C20682F
:1018A00080683840B8421CBF0020BDE8F081002DA0
:1018B000F5D0FEF7FFFDA0EB0800B042EFD32068A3
:1018C000416821F0E00141606168B1F5827F0AD191
:1018D000A168B1F5004F02D0B1F5806F03D1016866
:1018E00021F040010160A16AB1F5005F07D10168F4
:1018F00021F400510160016841F4005101600020B1
:1019000084F85000012084F851000320BDE8F081E4
:101910007047FEF7C5BE0000B0B592B000241F4866
:101920000225CDE90A44CDE908440194016841F05B
:1019300080510160006800F080500190019801948E
:101940001748016841F480410160006800F480405C
:1019500001900198042011904FF4A87010950F90F9
:1019600008200E904FF48000CDE90C504FF48030E9
:1019700007900120069006A8FFF708F84FF4805062
:10198000052105904FF4A05004900F20CDE902549A
:10199000019001A8FEF720FF12B0B0BD4038024010
:1019A0000070004010B50E480F4CD0F8801041F484
:1019B0007001C0F880100B490A6842F001020A6009
:1019C00000228A600B6823400B60084B4B600B6859
:1019D00023F480230B60CA604FF00061016010BDEA
:1019E00008ED00E000380240FFFFF6FE1030002452
:1019F000806B0021C185C184FFF7F0BB0168CA6814
:101A000022F49072CA604A6922F001024A612021E0
:101A100080F83A10704790F83A10222918BF7047A2
:101A20008168B1F5805F08D102680369816A5268F4
:101A300083B1D2B221F8012B10E002690168496834
:101A4000002A826A02F10103836218BF01F07F015C
:101A5000117004E06FF35F2221F8022B8162C18DC7
:101A60000139C185090400D070470168CA6822F0B5
:101A70002002CA60CA6822F48072CA604A6922F0F1
:101A800001024A61202180F83A10FFF717BD0000DB
:101A90002DE9F0470446006849F20C650169E268E7
:101AA00021F4405111430161A168D4E90423E7699D
:101AB000C6681143AE43B7F5004F41EA030141EA5E
:101AC000070141EA0601C1604169A26921F4407140
:101AD00041EA020141614A4940F480603FD18842B5
:101AE0000CBFDFF820A1DFF820A1D047D4F8049084
:101AF0008046D04767680646D047616819257F0051
:101B0000684306FB05F34900B3FBF7F3B0FBF1F0C4
:101B10006421B0FBF1F202FB1102181A4FEA4903EB
:101B20001044322202EBC0004FF4F872B0FBF1F027
:101B300002EA400008FB05F2B2FBF3F2B2FBF1F15E
:101B400000EB0116D047616868434900B0FBF1F72C
:101B5000D047616868430722032349003CE088427C
:101B600014BFDFF8A4A0DFF89CA0D047D4F80490FD
:101B70008046D04767680646D04761681925BF0090
:101B8000684306FB05F38900B3FBF7F3B0FBF1F004
:101B90006421B0FBF1F202FB1102181A4FEA89032B
:101BA0001044322202EB001008FB05F2B0FBF1F00A
:101BB000B2FBF3F200F0F000B2FBF1F100EB011622
:101BC000D047616868438900B0FBF1F7D04761688E
:101BD00068430F2204238900B0FBF1F0391A64270F
:101BE000B0FBF7F505FB1700084421689840323038
:101BF000B0FBF7F0104030438860BDE8F08700BFCD
:101C0000001401400D090008F90800082DE9F04111
:101C10001D4690460F4604465E1C20680168394008
:101C2000B94204BF0020BDE8F081002EF5D035B1E7
:101C3000FEF740FCA0EB0800A842EED92068C1687E
:101C400021F4D071C160416921F00101416120207E
:101C5000002184F8390084F8381084F83A00032011
:101C6000BDE8F081A948FFF7BBBA00BFFEE700005E
:101C7000054801210122FEF718BC00BF02480121DE
:101C80000022FEF712BC00BF000802401CB59020E5
:101C90000090FFF7F3FF0F4C694602224FF47A736E
:101CA0002046FFF7ECF801A9204604224FF47A738E
:101CB000FFF74EF8FFF7DCFF9DF8061006A000F0D6
:101CC00031F99DF807400DA0214600F02BF9204680
:101CD00002B010BD6801002053504920466C61736A
:101CE00068204D616E756661637475726572204916
:101CF000443D307825780D0A0000000053504920FB
:101D0000466C617368204465766963652049443D8B
:101D1000307825780D0A00002DE9FC47DFF8649043
:101D20000120ADF80600C847DFF8F8A0D0474B4CBB
:101D30000DF10605DFF8F08002224FF47A73294690
:101D40002046C0473A4FB8470F4EB0473120ADF854
:101D50000600C847D0472046294602224FF47A732E
:101D6000C047B847B0471120ADF80600C847D04774
:101D70002046294602224FF47A73C047B847B0473D
:101D8000BDE8FC87351E00088D1D00082DE9FE4FBB
:101D9000DFF890B0314CDFF89080DFF89090DFF8FA
:101DA00090A00DF107050DF109060DF106070520BC
:101DB0008DF80B0035208DF80A0015208DF80900EC
:101DC000D84720460DF10B0101224FF47A73C0472A
:101DD000204602A901224FF47A73C847D047D8475A
:101DE00020460DF10A0101224FF47A73C0472046C4
:101DF000294601224FF47A73C847D047D847204676
:101E0000314601224FF47A73C047204639460122F9
:101E10004FF47A73C847D0479DF80800C007C6D171
:101E2000BDE8FE8F7D1C00087F0E0008510D0008E4
:101E3000711C0008E0B506208DF80700FFF71EFFB3
:101E400006480DF1070101224FF47A73FFF717F8E6
:101E5000FFF70EFFFFF79AFF8CBD00BF680100205F
:101E600010B5074C00F00F03044AB0F1FF3F2344C4
:101E7000C8BF83180801187010BD00BF00E400E05F
:101E800014ED00E070B5144605464E0006E0284605
:101E900000F008F82046FEF72BFA013E002EF6D19E
:101EA00070BD000001460148FEF7F8BA0014024078
:101EB000E0B50190154801A901224FF6FF73FFF725
:101EC00055FB019802B080BDFEF7F6FBFFF724FD3D
:101ED000FFF7A6FBFFF768FCFFF704FCFFF748FCE1
:101EE000FFF720FC09480A490122FFF7C1FA09A0BF
:101EF00000F098F94FF4806003216422FFF7C2FFDD
:101F0000FFF7C4FEFFF708FFFEE700BFC001002097
:101F10001000002048656C6C6F2053544D333246DE
:101F2000343037000FB4054B10B503A9044A0298AA
:101F300000F018F810BC5DF814FB0000B11E00089A
:101F40000000002002E008C8121F08C1002AFAD1D0
:101F500070477047002001E001C1121F002AFBD129
:101F6000704700002DE9FF4F8DB09B460F46044699
:101F7000002606E025280BD05A460F999047641C8E
:101F8000761C20780028F5D111B03046BDE8F08FDE
:101F90000025A8460122984900E0054314F8013FB6
:101FA000203B02FA03F00842F7D120782E2817D1FF
:101FB00014F8010F45F004052A280ED06FF02F0207
:101FC0002078A0F1300109290AD808EB880102EB3A
:101FD000410100EB0108641CF2E757F8048B641C14
:101FE00020786C280DD004DC4C2812D06A2811D13E
:101FF00004E074280DD07A280CD10AE045F40015CD
:1020000007E0617845F48015814202D1641C05F532
:102010008015641C2278692A45D008DC002AB3D0D8
:10202000582A69D0632A10D0642A08D13BE0702A6C
:1020300067D0732A13D0752A5CD0782A5CD01046FA
:102040005A460F999047761CD3E017F8040B8DF889
:10205000000000208DF80100E946012003E057F858
:10206000049B4FF0FF3069074FF0000501D40AE0F0
:102070006D1C45450DDA8542FADB19F8051000297B
:10208000F6D106E06D1C8542FCDB19F8051000292D
:10209000F8D12E4404E019F8010B5A460F999047E5
:1020A0006D1EF8D2A5E00A200021CDE90801C5F394
:1020B000025002280DD001CFC117031E71F1000399
:1020C0000DDA4FF0000CD0EB0C006CEB01012D236E
:1020D00008E0FF1D27F00707F7E80201EDE72B05F1
:1020E00004D52B238DF8283001233BE0EB0739D0B2
:1020F0002023F7E70A2000E010200021CDE90801A5
:1021000007E01020002145F00405CDE908014FF05B
:102110000808C5F3025002280FD001CF00214FF06C
:10212000000A2B071FD5702A0DD0DDE908C38CF0FB
:10213000100C5CEA030C0CD015E0FF1D27F007071C
:10214000F7E80201EBE740228DF828204FF0010A62
:102150000BE050EA010306D030238DF828308DF8CB
:10216000292002239A46582A04D024A20DF12009DE
:102170000B9209E026A2F9E7DDE90823FEF720F833
:102180000B9B9B5C09F8013D50EA0102F4D1ADEBD9
:10219000090020300890680701D44FF00108089921
:1021A000884502DDA8EB010000E000208046002504
:1021B00006E00AA85A46405D0F9990476D1C761CB0
:1021C0005545F6DB04E030205A460F999047761CBF
:1021D000B8F10001A8F10108F5DC05E019F8010BE0
:1021E0005A460F999047761C0899481E0890002976
:1021F000F4DC641CC5E600000928010030313233EC
:102200003435363738396162636465660000000032
:10221000303132333435363738394142434445461C
:102220000000000010B5044601E0FFF741FE14F87D
:10223000010B04490028F8D1BDE810400A20FFF73F
:1022400037BE000000000020000000000000000079
:10225000010203040607080900000000010203044C
:10226000802200080000002010000000441F000829
:10227000902200081000002038420000541F00087F
:102280000000000001000000100000000024F40025
:040000050800018965
:00000001FF
