:020000040800F2
:10000000F00500209D01000807120008C910000833
:1000100005120008C502000869150008000000006C
:100020000000000000000000000000000B120008AB
:10003000C702000800000000091200080D120008A5
:10004000B7010008B7010008B7010008B7010008B0
:10005000B7010008B7010008B7010008B7010008A0
:10006000B7010008B7010008B7010008B701000890
:10007000B7010008B7010008B7010008B701000880
:10008000B7010008B7010008B7010008B701000870
:10009000B7010008B7010008B7010008B701000860
:1000A000B7010008B7010008B7010008B701000850
:1000B000B7010008B7010008B7010008B701000840
:1000C000B7010008B7010008B7010008B701000830
:1000D000B70100085D150008B7010008B701000866
:1000E000B7010008B7010008B7010008B701000810
:1000F000B7010008B7010008B7010008B701000800
:10010000B7010008B7010008B7010008B7010008EF
:10011000B7010008B7010008B7010008B7010008DF
:10012000B7010008B7010008B7010008B7010008CF
:10013000B7010008B7010008B7010008B7010008BF
:10014000B7010008B7010008B7010008B7010008AF
:10015000B7010008B7010008B7010008B70100089F
:10016000B7010008B7010008B7010008B70100088F
:10017000B7010008B7010008B7010008000000003F
:10018000B7010008B7010008DFF80CD000F088F8CC
:1001900000480047D5150008F005002006488047B4
:1001A00006480047FEE7FEE7FEE7FEE7FEE7FEE75C
:1001B000FEE7FEE7FEE7FEE79D1200088901000862
:1001C0002DE9F05F0546002092469B46884606468C
:1001D000814640241BE0284641464746224600F01F
:1001E0004EF853465A46C01A914110D3114618464C
:1001F000224600F035F82D1A67EB01084F462246DB
:100200000120002100F02CF817EB00094E41201EC0
:10021000A4F10104DFDC484631462A464346BDE8E6
:10022000F09FD2B201E000F8012B491EFBD27047CB
:100230000022F6E710B513460A4604461946FFF7B2
:10024000F0FF204610BD30B504460020034600E014
:100250005B1C934203D2E05CCD5C401BF8D030BD08
:10026000202A04DB203A00FA02F100207047914076
:10027000C2F1200320FA03F3194390407047202A6B
:1002800004DB203A21FA02F00021704721FA02F340
:10029000D040C2F120029140084319467047000047
:1002A000064C074D06E0E06840F0010394E80700C3
:1002B00098471034AC42F6D3FFF76AFF6019000884
:1002C00080190008FEE77047704790F83510022942
:1002D00009D1052180F835100068016821F001017D
:1002E00001600020704780214165012070470000B7
:1002F000B0B5044600F0DEF80546ED48611C007814
:1003000018BF044400F0D6F8401BA042FAD3B0BD99
:100310002DE9F84F5B4A4FF0080A4FF0010B4FF000
:1003200000084FF0000E9042574A08BF4FF0070AEE
:1003300002444FEAB223072B38BF4FEAB22A002209
:10034000102A08BFBDE8F88F0B680BFA02F633429B
:1003500000F091804B6843F01004122C13D16FF021
:1003600003040EF01C030F2704EA520507FA03FCEE
:1003700005442C6A24EA0C0C0C6904FA03F343EAE2
:100380000C032B624B68032703F00305122B07FABB
:1003900008F4076805FA08F56FEA040C27EA040771
:1003A00047EA0507076013D80BFA03F414F0061F99
:1003B0000ED08468CD6804EA0C0405FA08F52C43D5
:1003C0008460C3F3001445689440B5432C434460F3
:1003D000C4688D68DB0004EA0C0705FA08F547EAF3
:1003E0000507C76047D50023284C0EF00C05009385
:1003F000284BA4461F461B6843F480433B603B6880
:1004000003F48043009322F003032344224C009F13
:10041000A1461F590F24AC400AFA05F5A7432F4304
:1004200043F80970DCF800304D6843EA0607EC0336
:1004300058BF23EA0607CCF80070AC03DCF80430A0
:1004400043EA060758BF23EA0607CCF80470EC021B
:10045000DCF8083043EA060758BF23EA06070C4BCE
:10046000CCF80870AD021C461B6843EA060758BF6B
:1004700023EA0607276008F102080EF1040E013294
:100480005EE700BF001C02400000FEBF003C0140D0
:100490000C3C01404438024008FCFFFF42690A401E
:1004A0008A4208BF090481617047002A08BF090415
:1004B000816170477F480068704700BFB0B520B3C6
:1004C000044690F83D0028B9002084F83C002046FE
:1004D00000F0AEF8242084F83D002068016821F087
:1004E0000101016000F008FA4C494D4B00224D4DCE
:1004F00088424FF0000138BF0121984238BF0122E5
:100500006368AB4238BF0A460AB10120B0BD464914
:10051000B0FBF1F221684D6825F03F0515434D60B1
:100520000D6A25F03F0C414DAB4213D80132013822
:1005300042EA0C020A625A004CF6FF73B0FBF2F07A
:1005400001306FF31F30042898BF0420CA6922EAE3
:10055000030C3AE04FF49675A0F1010E6A434FF494
:100560007A75B2FBF5F24CF6FF75013242EA0C02E5
:100570000A62CA6922EA050CA26842B11920042560
:100580005843BEFBF0F0013065F31F3006E003EB8B
:100590004300BEFBF0F001306FF31F30000509D0BF
:1005A00052B1192004225843BEFBF0F0013062F32F
:1005B0001F3008E0012008E003EB4300BEFBF0F031
:1005C00001306FF31F3040F4004040EA0C00C86176
:1005D0000868D4E9072320F0C000104348F2FF3236
:1005E0001843086088689043D4E9032318431043F4
:1005F0008860C868D4E9052320F0FF001043184341
:10060000C860086840F001000860002020212064D4
:1006100084F83D10206384F83E00B0BD80841E0045
:1006200000093D00A186010040420F00A0860100A4
:10063000B0B586B0044601A81421FFF7F9FD216882
:100640001548814225D10025144C00F5D83000957D
:10065000216841F002012160216801F0020100914E
:100660000099042105910321049101210391122194
:1006700002914FF44071019101A9FFF749FE0095E5
:10068000206940F400102061206900F400100090FF
:10069000009806B0B0BD00BF0054004030380240A2
:1006A0002048044900780A6810440860704700BF79
:1006B00004000020E801002080B50B48016841F4E7
:1006C00000710160016841F480610160016841F4DA
:1006D00080710160032000F06FF8002000F006F840
:1006E00000F022F8002080BD003C024070B50D4EA5
:1006F00004464FF47A713078B1FBF0F0884909680C
:10070000B1FBF0F000F0AEFA01250F2C08D838B993
:100710004FF0FF3021460022002500F02FF87460D2
:10072000284670BD0400002082B000200B490190D3
:100730004A6842F480424A604A6802F48042019268
:10074000019A0090086840F080500860086800F046
:1007500080500090009802B0704700BF40380240BF
:10076000002808DB00F01F010122400902FA01F114
:10077000014A42F82010704700E100E080B5144BB8
:100780001B68C3F3022CBCF1030E8CF007034FF07F
:10079000FF3C38BF4FF0000E042B28BF04230CFA97
:1007A00003F399430CFA0EF301FA0EF19A43114345
:1007B000BDE8804000F0DABE05494FF6FF030A6845
:1007C0001A4060F30A22034810430860704700BFD4
:1007D0000CED00E00000FA052DE9F041002800F0E2
:1007E0008380434B04468846D3F8000400F00F0092
:1007F000884207D283F80084D3F8000400F00F0089
:10080000404571D12068810711D5410742BF9968E1
:1008100041F4E0519960010742BF996841F4604199
:1008200099609968A26821F0F00111439960C007AE
:100830002AD06068811E022903D21968890109D46F
:1008400052E0012803D11968890303D44CE01968E8
:10085000890749D599681D4621F00301084398602E
:10086000FFF728FE064641F28837A86861682B46E4
:1008700000F00C00B0EB810F06D0FFF71BFE801BD1
:10088000B842F2D9032430E0D3F8000400F00F009E
:10089000404507D983F80084D3F8000400F00F0026
:1008A000404521D12068410705D59968E26821F4C7
:1008B000E05111439960000706D59868216920F43A
:1008C000604040EAC10098601C4600F02FF8A16823
:1008D000084A0024C1F30311515CC8401049086064
:1008E0000020FFF703FF00E001242046BDE8F0816F
:1008F000003802404819000809480A490A4A0068B5
:100900000968C1F38221515CC84070470448054919
:10091000054A00680968C1F34231515CC84070471C
:100920000C000020083802405819000810B5144C7B
:10093000606800F00C011348082904D0042904BFA2
:10094000114810BD10BD2168236801F03F022168E5
:100950005B02C1F3881105D4A1FB00010023FFF75E
:100960002FFC03E008484843B0FBF2F02168022264
:10097000C1F3014102EB4101B0FBF1F010BD00BF3A
:10098000043802400024F40000127A002DE9FC41F2
:10099000002800F0058104460078AF4EC0072FD034
:1009A000B06800F00C00042823D0B06800F00C0000
:1009B000082802D1706840021BD46768B7F5803FF1
:1009C00007D03068B7F5A02F40F00B8140F48020AD
:1009D0003060306840F480303060FFF76BFD0546D2
:1009E000306880030CD4FFF765FD401B6428F7D9FD
:1009F0009DE03068800303D56068002800F0D08057
:100A0000207880072BD5B06810F00C0F07D0B068A5
:100A100000F00C00082809D17068400206D4306844
:100A2000800715D5E068012812D0B9E0E1688B484D
:100A300000297ED001210160FFF73CFD05463068AA
:100A4000800705D4FFF736FD401B0228F7D96EE07A
:100A50003068216920F0F80040EAC1003060207859
:100A6000000721D5606978B17C480121C0F8801E5B
:100A7000FFF720FD0546706F800715D4FFF71AFDBC
:100A8000401B0228F7D952E074480021C0F8801EAC
:100A9000FFF710FD0546706F800705D5FFF70AFDCB
:100AA000401B0228F7D942E02078400770D5306C0F
:100AB0004FF00008C0000CD4CDF804804FF00108BE
:100AC000306C40F080503064306C00F08050019009
:100AD0000198634F3868C0050FD4386840F48070BF
:100AE0003860FFF7E7FC05463868C00505D4FFF716
:100AF000E1FC401B0228F7D919E0A768012F05D0B7
:100B0000306F052F25D140F004003067306F40F082
:100B100001003067FFF7CEFC054641F28837306FA1
:100B200080072ED4FFF7C6FC401BB842F7D903203C
:100B300037E000210160FFF7BDFC05463068800703
:100B40007FF58DAFFFF7B6FC411B03200229F5D9D5
:100B500027E020F001003067306F20F0040030679C
:100B6000FFF7A8FC0546002FD7D141F28837306F38
:100B7000800706D5FFF79EFC411B0320B942F6D93A
:100B80000FE0B8F1000F1EBF306C20F080503064D1
:100B9000A769002F5DD0B06800F00C00082803D1D1
:100BA000012002B0BDE8F0812C490020884608668B
:100BB000FFF780FC0546022F09D13068800128D557
:100BC000FFF778FC411B03200229F6D9E9E73068DA
:100BD00080013ED5FFF76EFC411B03200329F6D3AD
:100BE000DFE720F480303060306820F4802030600F
:100BF000FFF760FC0546002F7FF4F2AE30688003FB
:100C00007FF5FEAEFFF756FC411B03206429F5D9A2
:100C1000C7E704F11C078FCF0843D90340EA8210CD
:100C20004FF6FF72914340EA0760A1F58031084317
:100C300070600120C8F86000FFF73CFC0446306893
:100C4000800106D4FFF736FC011B03200229F6D9E8
:100C5000A7E70020A5E700BF003802400000474298
:100C600000700040411E0020B0EB116F1CBF01203E
:100C70007047044AF023516003490B7007219060CC
:100C80001160704710E000E023ED00E070470000C5
:100C900010B5D0F800E00446DEF80010DEF80C20B5
:100CA000DEF814305FEA017C50D002F4907003F05B
:100CB0000103C01852D0C8071FBF12F48070E06B48
:100CC00040F00100E063480704D51BB1E06B40F041
:100CD0000200E063880704D51BB1E06B40F004001C
:100CE000E063BCF1000F04D51BB1E06B40F00800DD
:100CF000E063E06B00286ED002EA0100800604D5B4
:100D0000204600F004FBD4F800E0DEF81400E16BAC
:100D100000F0400001F0080140184CD0204600F0DF
:100D2000E9FA20684169490640D5416921F040014E
:100D30004161606BD0B32F490165FFF7C6FA002807
:100D400049D0606B016DBDE81040084711408A062C
:100D500005D52046BDE8104000F0D9BA114008067C
:100D60000FD4480637D5DEF80C0020F04000CEF84E
:100D70000C00202084F839002046BDE8104000F027
:100D8000A2B994F83900212825D1A068216AB0F5CC
:100D9000805F16D108886FF35F20CEF804002069C9
:100DA000002814BF481C881C20620FE02046BDE8C4
:100DB0001040FFF76BBF2046FFF768FF0020E0639D
:100DC00010BD481C20620878CEF80400E08C013881
:100DD000E084000400D010BDDEF80C0020F080009C
:100DE000CEF80C00DEF80C0040F04000CEF80C000D
:100DF00010BD00BFE912000850B310B5044690F8CA
:100E0000390028B9002084F83800204600F022F884
:100E1000242084F839002068C16821F40051C160A1
:100E2000204600F0B1FA2068016921F49041016187
:100E3000416921F02A014161C16841F40051C1605A
:100E400000202021E06384F8391084F83A1010BDA6
:100E50000120704710B586B0044601A81421FFF7A1
:100E6000E7F92068E649884226D0D849884250D11F
:100E70000020B74900900A6942F400220A610A6919
:100E800002F400220092009A0090086840F00100ED
:100E900008600868012100F0010000900098082017
:100EA00005900320049003910221CDE901011A4825
:100EB00001A9FFF72DFA2CE00020A54900904A690E
:100EC00042F010024A614A6902F010020092009A50
:100ED0000090086840F001000860086801A900F06F
:100EE0000100009000980720059003200490012045
:100EF0000390022002904FF4C06001900648FFF773
:100F000007FA252000210022FFF738FC2520FFF7F3
:100F100027FC06B010BD00BF00000240034690F859
:100F20003A00202806D10120E9B1E2B193F8380057
:100F3000012801D1022070470020DA85D8639A8504
:100F40009962222183F8380083F83A101968CA6838
:100F500042F48072CA604A6942F001024A61CA687A
:100F600042F02002CA607047204900680968884240
:100F700018BF7047B0B51E4C6588FF2D07D3002001
:100F80004FF4807160801B48FFF752F926E025B9C5
:100F900018484FF48071FFF74BF9681C15496080C1
:100FA00022784A5511FA80F212F8012C0A2A15D13A
:100FB00080B2084410F8020C0D280FD10020608088
:100FC0000C4C0DA0214600F02DFB0EA12046032263
:100FD000FFF739F910B90CA000F024FB03480449CD
:100FE0000122BDE8B040FFF799BF00BF68010020B3
:100FF0001000002014000020726563656976653A70
:101000002025730072756E000D0A2073746172746E
:10101000207363616E0000002DE9F041044690F8F2
:10102000390020280AD10E460120002949D0174650
:10103000002A46D094F83800012802D10220BDE8E9
:10104000F08100201D46E063012084F83800212053
:1010500084F83900FFF72EFA8046E784A7841DE064
:10106000E08C802142462B460138E0842046A76868
:1010700000F048FAB7F5805F0BD1C8B93188206815
:101080006FF35F2141602069002814BF01360236EA
:1010900004E068B9206816F8011B4160E08C002864
:1010A000DED12046402142462B4600F02BFA10B1FB
:1010B0000320BDE8F0810020202184F8380084F866
:1010C0003910BDE8F0817047FEE70000F0B587B049
:1010D00000251F481F4C01224FF4C06601270695CA
:1010E0000195016841F020010160016801F02001D3
:1010F000019101990195016841F080010160016849
:1011000001F08001019101990195016841F001010F
:101110000160016801F001010191019901950168E7
:1011200041F0020101604FF4C061006800F002006C
:10113000019001982046FFF7B8F902A92046CDE9B1
:101140000475CDE90267FFF7E3F807B0F0BD00BF13
:10115000303802400014024010B50C480C4B0D4CC6
:1011600000224FF480410262C0E90043C0E902223C
:10117000C0E90412C0E90622FFF7A0F9002814BF55
:10118000BDE8104010BDFFF79FB800BF140100205C
:10119000A08601000054004010B50B480B4C4FF4E2
:1011A000E13300210C22C0E90043C0E90211C0E98B
:1011B0000412C0E90611FFF71FFE002814BFBDE8A6
:1011C000104010BDFFF780B8A8010020004C00407F
:1011D00010B5E4480A4C4FF4E13300210C22C0E979
:1011E0000043C0E90211C0E90412C0E90611FFF78B
:1011F00003FE002814BFBDE8104010BDFFF764B81F
:1012000000100140FEE7704770477047FFF748BA8B
:10121000B0B592B000241F480225CDE90A44CDE9BB
:1012200008440194016841F080510160006800F0B9
:1012300080500190019801941748016841F4804161
:101240000160006800F48040019001980420119032
:101250004FF4A87010950F9008200E904FF4800066
:10126000CDE90C504FF4803007900120069006A87D
:10127000FFF78CFB4FF48050052105904FF4A050F0
:1012800004900F20CDE90254019001A8FFF7A4FAC1
:1012900012B0B0BD403802400070004010B50E489A
:1012A0000F4CD0F8801041F47001C0F880100B4949
:1012B0000A6842F001020A6000228A600B6823403B
:1012C0000B60084B4B600B6823F480230B60CA60F3
:1012D0004FF00061016010BD08ED00E000380240F1
:1012E000FFFFF6FE10300024806B0021C185C18411
:1012F000FFF7CCBC0168CA6822F49072CA604A69E0
:1013000022F001024A61202180F83A10704790F8DB
:101310003A10222918BF70478168B1F5805F08D163
:1013200002680369816A526883B1D2B221F8012B45
:1013300010E0026901684968002A826A02F101032B
:10134000836218BF01F07F01117004E06FF35F2228
:1013500021F8022B8162C18D0139C185090400D0B9
:1013600070470168CA6822F02002CA60CA6822F485
:101370008072CA604A6922F001024A61202180F825
:101380003A10FFF7F1BD00002DE9F0470446006870
:1013900049F20C650169E26821F440511143016191
:1013A000A168D4E90423E769C6681143AE43B7F5E1
:1013B000004F41EA030141EA070141EA0601C16029
:1013C0004169A26921F4407141EA020141614A493F
:1013D00040F480603FD188420CBFDFF820A1DFF8E5
:1013E00020A1D047D4F804908046D04767680646CD
:1013F000D047616819257F00684306FB05F3490063
:10140000B3FBF7F3B0FBF1F06421B0FBF1F202FBA8
:101410001102181A4FEA49031044322202EBC000AD
:101420004FF4F872B0FBF1F002EA400008FB05F25D
:10143000B2FBF3F2B2FBF1F100EB0116D0476168A9
:1014400068434900B0FBF1F7D04761686843072261
:10145000032349003CE0884214BFDFF8A4A0DFF872
:101460009CA0D047D4F804908046D04767680646D1
:10147000D04761681925BF00684306FB05F3890062
:10148000B3FBF7F3B0FBF1F06421B0FBF1F202FB28
:101490001102181A4FEA89031044322202EB00109D
:1014A00008FB05F2B0FBF1F0B2FBF3F200F0F00044
:1014B000B2FBF1F100EB0116D04761686843890087
:1014C000B0FBF1F7D047616868430F22042389001D
:1014D000B0FBF1F0391A6427B0FBF7F505FB1700F4
:1014E0000844216898403230B0FBF7F01040304398
:1014F0008860BDE8F08700BF001401400D090008B6
:10150000F90800082DE9F0411D4690460F460446B3
:101510005E1C206801683940B94204BF0020BDE864
:10152000F081002EF5D035B1FEF7C4FFA0EB080026
:10153000A842EED92068C16821F4D071C160416928
:1015400021F0010141612020002184F8390084F854
:10155000381084F83A000320BDE8F0812B48FFF7EB
:1015600097BB00BF68010020FEE7000010B5074CE4
:1015700000F00F03044AB0F1FF3F2344C8BF8318B3
:101580000801187010BD00BF00E400E014ED00E099
:1015900070B5144605464E0006E0284600F008F8EF
:1015A0002046FEF7A5FE013E002EF6D170BD0000DC
:1015B00001460148FEF772BF00140240E0B50190F9
:1015C000124801A901224FF6FF73FFF725FD01988C
:1015D00002B080BDFFF770F8FFF71AFEFFF776FD47
:1015E000FFF7F6FDFFF7B8FDFFF7D6FD07480849FE
:1015F0000122FFF793FC07A000F094F94FF48060FC
:1016000003216422FFF7C4FFFEE700BF680100204A
:101610001000002048656C6C6F2053544D333246E7
:10162000343037000FB4054B10B503A9044A0298B3
:1016300000F018F810BC5DF814FB0000BD150008A0
:101640000000002002E008C8121F08C1002AFAD1D9
:1016500070477047002001E001C1121F002AFBD132
:10166000704700002DE9FF4F8DB09B460F460446A2
:10167000002606E025280BD05A460F999047641C97
:10168000761C20780028F5D111B03046BDE8F08FE7
:101690000025A8460122984900E0054314F8013FBF
:1016A000203B02FA03F00842F7D120782E2817D108
:1016B00014F8010F45F004052A280ED06FF02F0210
:1016C0002078A0F1300109290AD808EB880102EB43
:1016D000410100EB0108641CF2E757F8048B641C1D
:1016E00020786C280DD004DC4C2812D06A2811D147
:1016F00004E074280DD07A280CD10AE045F40015D6
:1017000007E0617845F48015814202D1641C05F53B
:101710008015641C2278692A45D008DC002AB3D0E1
:10172000582A69D0632A10D0642A08D13BE0702A75
:1017300067D0732A13D0752A5CD0782A5CD0104603
:101740005A460F999047761CD3E017F8040B8DF892
:10175000000000208DF80100E946012003E057F861
:10176000049B4FF0FF3069074FF0000501D40AE0F9
:101770006D1C45450DDA8542FADB19F80510002984
:10178000F6D106E06D1C8542FCDB19F80510002936
:10179000F8D12E4404E019F8010B5A460F999047EE
:1017A0006D1EF8D2A5E00A200021CDE90801C5F39D
:1017B000025002280DD001CFC117031E71F10003A2
:1017C0000DDA4FF0000CD0EB0C006CEB01012D2377
:1017D00008E0FF1D27F00707F7E80201EDE72B05FA
:1017E00004D52B238DF8283001233BE0EB0739D0BB
:1017F0002023F7E70A2000E010200021CDE90801AE
:1018000007E01020002145F00405CDE908014FF064
:101810000808C5F3025002280FD001CF00214FF075
:10182000000A2B071FD5702A0DD0DDE908C38CF004
:10183000100C5CEA030C0CD015E0FF1D27F0070725
:10184000F7E80201EBE740228DF828204FF0010A6B
:101850000BE050EA010306D030238DF828308DF8D4
:10186000292002239A46582A04D024A20DF12009E7
:101870000B9209E026A2F9E7DDE90823FEF7A0FCB8
:101880000B9B9B5C09F8013D50EA0102F4D1ADEBE2
:10189000090020300890680701D44FF0010808992A
:1018A000884502DDA8EB010000E00020804600250D
:1018B00006E00AA85A46405D0F9990476D1C761CB9
:1018C0005545F6DB04E030205A460F999047761CC8
:1018D000B8F10001A8F10108F5DC05E019F8010BE9
:1018E0005A460F999047761C0899481E089000297F
:1018F000F4DC641CC5E600000928010030313233F5
:10190000343536373839616263646566000000003B
:101910003031323334353637383941424344454625
:101920000000000010B5044601E0FFF747FE14F880
:10193000010B04490028F8D1BDE810400A20FFF748
:101940003DBE00000000002000000000000000007C
:101950000102030406070809000000000102030455
:101960008019000800000020100000004416000844
:101970009019000810000020E0050000541600082F
:101980000000000001000000100000000024F4002E
:040000050800018965
:00000001FF
