:020000040800F2
:10000000A04700209D010008AB1C0008211A000831
:10001000A91C00083D030008612200080000000040
:10002000000000000000000000000000D11D0008DA
:100030003F03000800000000AD1C0008D31D0008AD
:10004000B7010008B7010008B7010008B7010008B0
:10005000B7010008B7010008B7010008B7010008A0
:10006000B7010008B7010008B7010008B701000890
:10007000B7010008B7010008B7010008B701000880
:10008000B7010008B7010008B7010008B701000870
:10009000B7010008B7010008B7010008B701000860
:1000A000B7010008B7010008B7010008B701000850
:1000B000B7010008C51E0008B7010008B701000815
:1000C000B7010008B7010008B7010008B701000830
:1000D000B701000859220008B7010008B70100085D
:1000E000B7010008B7010008B7010008B701000810
:1000F000B7010008B7010008B7010008B701000800
:10010000B7010008B7010008B7010008B7010008EF
:10011000B7010008B7010008B7010008B7010008DF
:10012000B7010008B7010008B7010008B7010008CF
:10013000B7010008B7010008B7010008B7010008BF
:10014000B7010008B7010008B7010008B7010008AF
:10015000B7010008B7010008B7010008B70100089F
:10016000B7010008B7010008B7010008B70100088F
:10017000B7010008B7010008B7010008000000003F
:10018000B7010008B7010008DFF80CD000F088F8CC
:1001900000480047E1230008A047002006488047A8
:1001A00006480047FEE7FEE7FEE7FEE7FEE7FEE75C
:1001B000FEE7FEE7FEE7FEE7791E0008890100087A
:1001C0002DE9F05F0546002092469B46884606468C
:1001D000814640241BE0284641464746224600F01F
:1001E0004EF853465A46C01A914110D3114618464C
:1001F000224600F035F82D1A67EB01084F462246DB
:100200000120002100F02CF817EB00094E41201EC0
:10021000A4F10104DFDC484631462A464346BDE8E6
:10022000F09FD2B201E000F8012B491EFBD27047CB
:100230000022F6E710B513460A4604461946FFF7B2
:10024000F0FF204610BD30B504460020034600E014
:100250005B1C934203D2E05CCD5C401BF8D030BD08
:10026000202A04DB203A00FA02F100207047914076
:10027000C2F1200320FA03F3194390407047202A6B
:1002800004DB203A21FA02F00021704721FA02F340
:10029000D040C2F120029140084319467047000047
:1002A000064C074D06E0E06840F0010394E80700C3
:1002B00098471034AC42F6D3FFF76AFF682900086C
:1002C00088290008E0B5084801A9002200F08CFD4B
:1002D0009DF807009DF805209DF8063000F5FA61AD
:1002E00002A002F0CBF88CBD7807002025303264E4
:1002F0002F253032642F253032640D0A00000000B3
:10030000FEB5084801A9002200F09EFD9DF80410EA
:100310009DF805209DF8063003A002F0AFF806B066
:1003200080BD00BF78070020253032643A25303286
:10033000643A253032640D0A00000000FEE7704781
:10034000704790F83510022909D1052180F8351041
:100350000068016821F001010160002070478021E0
:1003600041650120704700002DE9F84F5B4A4FF0CE
:10037000080A4FF0010B4FF000084FF0000E9042BA
:10038000574A08BF4FF0070A02444FEAB223072B2F
:1003900038BF4FEAB22A0022102A08BFBDE8F88F02
:1003A0000B680BFA02F6334200F091804B6843F081
:1003B0001004122C13D16FF003040EF01C030F274E
:1003C00004EA520507FA03FC05442C6A24EA0C0CE3
:1003D0000C6904FA03F343EA0C032B624B6803270E
:1003E00003F00305122B07FA08F4076805FA08F56D
:1003F0006FEA040C27EA040747EA0507076013D8E9
:100400000BFA03F414F0061F0ED08468CD6804EADA
:100410000C0405FA08F52C438460C3F30014456806
:100420009440B5432C434460C4688D68DB0004EA03
:100430000C0705FA08F547EA0507C76047D500230A
:10044000284C0EF00C050093284BA4461F461B6851
:1004500043F480433B603B6803F48043009322F005
:1004600003032344224C009FA1461F590F24AC4094
:100470000AFA05F5A7432F4343F80970DCF800306A
:100480004D6843EA0607EC0358BF23EA0607CCF899
:100490000070AC03DCF8043043EA060758BF23EAD7
:1004A0000607CCF80470EC02DCF8083043EA0607D3
:1004B00058BF23EA06070C4BCCF80870AD021C4667
:1004C0001B6843EA060758BF23EA0607276008F1BE
:1004D00002080EF1040E01325EE700BF001C02406C
:1004E0000000FEBF003C01400C3C0140443802408B
:1004F00008FCFFFF42690A408A4208BF0904816183
:100500007047002A08BF0904816170477E4800686F
:10051000704700BFB0B520B3044690F83D0028B93D
:10052000002084F83C00204600F0AEF8242084F837
:100530003D002068016821F00101016000F094FA9B
:100540004C494D4B00224D4D88424FF0000138BFC1
:100550000121984238BF01226368AB4238BF0A4686
:100560000AB10120B0BD4649B0FBF1F221684D68E7
:1005700025F03F0515434D600D6A25F03F0C414DB8
:10058000AB4213D80132013842EA0C020A625A0027
:100590004CF6FF73B0FBF2F001306FF31F3004280C
:1005A00098BF0420CA6922EA030C3AE04FF496751A
:1005B000A0F1010E6A434FF47A75B2FBF5F24CF6E6
:1005C000FF75013242EA0C020A62CA6922EA050C8E
:1005D000A26842B1192004255843BEFBF0F0013057
:1005E00065F31F3006E003EB4300BEFBF0F0013083
:1005F0006FF31F30000509D052B11920042258436F
:10060000BEFBF0F0013062F31F3008E0012008E08B
:1006100003EB4300BEFBF0F001306FF31F3040F4FA
:10062000004040EA0C00C8610868D4E9072320F0C4
:10063000C000104348F2FF321843086088689043B6
:10064000D4E90323184310438860C868D4E905231C
:1006500020F0FF0010431843C860086840F0010014
:10066000086000202021206484F83D10206384F875
:100670003E00B0BD80841E0000093D00A18601003F
:1006800040420F00A0860100B0B586B0044601A824
:100690001421FFF7CDFD21681548814225D10025A1
:1006A000144C00F5D8300095216841F0020121601A
:1006B000216801F0020100910099042105910321B4
:1006C000049101210391122102914FF44071019193
:1006D00001A9FFF749FE0095206940F40010206150
:1006E000206900F400100090009806B0B0BD00BF73
:1006F00000540040303802401F48034900780A681F
:1007000010440860704700BF9807002080B50B4870
:10071000016841F400710160016841F48061016089
:10072000016841F480710160032000F06FF800203F
:1007300000F006F800F022F8002080BD003C0240E6
:1007400070B50D4E04464FF47A713078B1FBF0F07D
:10075000CF490968B1FBF0F000F062FD01250F2CD4
:1007600008D838B94FF0FF3021460022002500F0AC
:100770002FF87460284670BD0400002082B000206D
:100780000B4901904A6842F480424A604A6802F488
:1007900080420192019A0090086840F08050086001
:1007A000086800F080500090009802B0704700BFC9
:1007B00040380240002808DB00F01F0101224009F8
:1007C00002FA01F1014A42F82010704700E100E00E
:1007D00080B5144B1B68C3F3022CBCF1030E8CF0E4
:1007E00007034FF0FF3C38BF4FF0000E042B28BF2B
:1007F00004230CFA03F399430CFA0EF301FA0EF1F9
:100800009A431143BDE8804001F05EBD05494FF6B3
:10081000FF030A681A4060F30A2203481043086085
:10082000704700BF0CED00E00000FA05F8B5044683
:10083000006810F0050F25D03F4F0020884E38602B
:10084000FFF764FE05463068000105D5FFF75EFE40
:10085000401B0228F7D934E0D4E90101090741EA35
:100860008010C6F8840001203860FFF74FFE05466F
:100870003068000105D4FFF749FE401B0228F7D974
:100880001FE0206880074FF000001BD5744E0090D9
:100890002A4F306C40F080503064306C00F0805053
:1008A00000900098386840F480703860FFF72EFEA2
:1008B00005463868C00507D4FFF728FE401B02280C
:1008C000F7D9032001B0F0BD306F10F440701FD095
:1008D000E16801F4407188421AD0306F1849012252
:1008E0000A60002220F440700A603067306FC00751
:1008F0000ED0FFF70BFE054641F28837306F8007B8
:1009000006D4FFF703FE411B0320B942F6D9D9E70D
:10091000E068B2680B4900F4407322F4F812014019
:100920006FF31F30B3F5407F08BF0A43B260316FE9
:10093000084330670020C5E7680047420070004068
:10094000400E4742FFFCFF0F2DE9F041002800F068
:100950008380434B04468846D3F8000400F00F0020
:10096000884207D283F80084D3F8000400F00F0017
:10097000404571D12068810711D5410742BF996870
:1009800041F4E0519960010742BF996841F4604128
:1009900099609968A26821F0F00111439960C0073D
:1009A0002AD06068811E022903D21968890109D4FE
:1009B00052E0012803D11968890303D44CE0196877
:1009C000890749D599681D4621F0030108439860BD
:1009D000FFF79CFD064641F28837A86861682B4600
:1009E00000F00C00B0EB810F06D0FFF78FFD801BED
:1009F000B842F2D9032430E0D3F8000400F00F002D
:100A0000404507D983F80084D3F8000400F00F00B4
:100A1000404521D12068410705D59968E26821F455
:100A2000E05111439960000706D59868216920F4C8
:100A3000604040EAC10098601C4600F02FF8A168B1
:100A4000084A0024C1F30311515CC84010490860F2
:100A50000020FFF775FE00E001242046BDE8F0818C
:100A6000003802404429000809480A490A4A006837
:100A70000968C1F38221515CC840704704480549A8
:100A8000054A00680968C1F34231515CC8407047AB
:100A90000C000020083802405429000810B5144CFE
:100AA000606800F00C011348082904D0042904BF31
:100AB000114810BD10BD2168236801F03F02216874
:100AC0005B02C1F3881105D4A1FB00010023FFF7ED
:100AD00077FB03E008484843B0FBF2F021680222AC
:100AE000C1F3014102EB4101B0FBF1F010BD00BFC9
:100AF000043802400024F40000127A002DE9FC4181
:100B0000002800F0058104460078AF4EC0072FD0C2
:100B1000B06800F00C00042823D0B06800F00C008E
:100B2000082802D1706840021BD46768B7F5803F7F
:100B300007D03068B7F5A02F40F00B8140F480203B
:100B40003060306840F480303060FFF7DFFC0546ED
:100B5000306880030CD4FFF7D9FC401B6428F7D918
:100B60009DE03068800303D56068002800F0D080E5
:100B7000207880072BD5B06810F00C0F07D0B06834
:100B800000F00C00082809D17068400206D43068D3
:100B9000800715D5E068012812D0B9E0E1688B48DC
:100BA00000297ED001210160FFF7B0FC05463068C6
:100BB000800705D4FFF7AAFC401B0228F7D96EE096
:100BC0003068216920F0F80040EAC10030602078E8
:100BD000000721D5606978B17C480121C0F8801EEA
:100BE000FFF794FC0546706F800715D4FFF78EFC65
:100BF000401B0228F7D952E074480021C0F8801E3B
:100C0000FFF784FC0546706F800705D5FFF77EFC73
:100C1000401B0228F7D942E02078400770D5306C9D
:100C20004FF00008C0000CD4CDF804804FF001084C
:100C3000306C40F080503064306C00F08050019097
:100C40000198634F3868C0050FD4386840F480704D
:100C50003860FFF75BFC05463868C00505D4FFF730
:100C600055FC401B0228F7D919E0A768012F05D0D1
:100C7000306F052F25D140F004003067306F40F011
:100C800001003067FFF742FC054641F28837306FBC
:100C900080072ED4FFF73AFC401BB842F7D9032057
:100CA00037E000210160FFF731FC0546306880071E
:100CB0007FF58DAFFFF72AFC411B03200229F5D9F0
:100CC00027E020F001003067306F20F0040030672B
:100CD000FFF71CFC0546002FD7D141F28837306F53
:100CE000800706D5FFF712FC411B0320B942F6D955
:100CF0000FE0B8F1000F1EBF306C20F08050306460
:100D0000A769002F5DD0B06800F00C00082803D15F
:100D1000012002B0BDE8F0812C4900208846086619
:100D2000FFF7F4FB0546022F09D13068800128D572
:100D3000FFF7ECFB411B03200229F6D9E9E73068F5
:100D400080013ED5FFF7E2FB411B03200329F6D3C8
:100D5000DFE720F480303060306820F4802030609D
:100D6000FFF7D4FB0546002F7FF4F2AE3068800316
:100D70007FF5FEAEFFF7CAFB411B03206429F5D9BE
:100D8000C7E704F11C078FCF0843D90340EA82105C
:100D90004FF6FF72914340EA0760A1F580310843A6
:100DA00070600120C8F86000FFF7B0FB04463068AF
:100DB000800106D4FFF7AAFB011B03200229F6D904
:100DC000A7E70020A5E700BF003802400000474227
:100DD00000700040006800EB8100006D7047006803
:100DE00000EB81000265704710B50068002A40687A
:100DF00000F03F034FEA104C8B70C0F3042E81F8D3
:100E000001E081F803C0C0F342340C701AD11B0911
:100E100000F00F04020A43EA830302F00F0204EB1E
:100E200043038B704FEA1E1343EA830302EB430232
:100E30004A70C0F303500CF00F0200EB800002EB8D
:100E40004000C870002010BD10B50068002A836AF9
:100E50004B6003696FF3DF338B6003684FF0400032
:100E600000EA1340C87003F07F008870C3F3062EB9
:100E700081F801E0C3F3054C81F800C01BD10009E3
:100E80001A0A1C0C03F00F0300EB800003EB400078
:100E9000887002F00F004FEA1E1202EB820200EB94
:100EA00042004FEA1C12487004F00F0042EA82022E
:100EB00000EB42000870002010BD0000B8B110B572
:100EC0000446407F20B900202077204600F042F8F9
:100ED0000220CA2160772068416253214162204686
:100EE00000F0FBFE216820B1012004222BE001204C
:100EF00070478868164A104088606068D4E9042307
:100F000010438A68184310438860E0680861A0684D
:100F10000A6942EA00400861C86820F08000C860A1
:100F20008868800605D4204600F0ECF82168002887
:100F3000DAD1086C20F480200864A0690A6C1043A0
:100F4000012208640020FF234B62627710BD00BFBE
:100F5000BFFF8FFF00680449884218BF70470348ED
:100F600001210160704700BF002800403C0E47424D
:100F70002DE9F0410D46017F04460220012908BFFA
:100F8000BDE8F08160770120002A207706D06878DC
:100F9000E978AE78000240EA014714E06F78DFF8A4
:100FA0005C81F80642BF07F0EF0000F10A076F709E
:100FB000E878C0470646F8B2C047000240EA064754
:100FC000A878C04706462068CA212D78416253217F
:100FD0004162204600F081FE18B121680120042200
:100FE00016E047EA0600216820F0C00040EA4530DC
:100FF0004860C86820F08000C8608868800605D412
:10100000204600F07FF821680028E7D10020012267
:10101000FF234B62002121776277BDE8F08100BF9A
:101020002DE9F0470D46017F04460220012908BF43
:10103000BDE8F08760770120002A20772768B8682C
:1010400000F040000FD0002807BF4FF0000885F8DF
:101050000380E8784FEA004869782878AE7809027A
:1010600041EA004915E0002807BF4FF0000885F865
:101070000380E8784FEA0048DFF880A02878D0475E
:1010800006466878D047000240EA0649A878D0476B
:101090000646CA20786253207862204600F01DFE82
:1010A00018B121680120042220E049EA0600144911
:1010B00040EA0800084021680860886820F4802021
:1010C0008860D5E903028B68104318438860C868BC
:1010D00020F08000C8608868800605D4204600F0B3
:1010E00011F821680028DDD100200122FF234B6286
:1010F000002121776277BDE8F08700BFAF1C0008B0
:101100007F7F7F00B0B504460068C16821F0A00170
:10111000C160FFF7FBF905462068C068800644BF40
:101120000020B0BDFFF7F2F9401BB0F57A7F84BF15
:101130000320B0BDF0E770B5C8B3002605464FF0F8
:10114000000C866290F8510030B9284685F850604E
:1011500000F030F8D5F828C0022185F85110296830
:101160000A6822F040020A60D5E90123D5E90304A8
:101170001A4310436A6920431043AA6902F40073BA
:101180001843EB6918432B6A184340EA0C000860C7
:10119000042000EA12406A6A10434860C86920F4DB
:1011A0000060C86101206E6585F8510000E00126ED
:1011B000304670BD10B586B0044601A81421FFF773
:1011C00037F821681448814223D10021134A00F5E1
:1011D00054400091536943F480535361536903F4BD
:1011E00080530093009B0091136843F00203136047
:1011F000126802F002020092009A05220592032270
:10120000CDE90312022102913821019101A9FFF7D2
:10121000ABF806B010BD00BF0030014030380240CE
:10122000411E0020B0EB116F1CBF01207047044A23
:10123000F023516003490B700721906011607047E3
:1012400010E000E023ED00E07047704790F83C307C
:101250000222012B19D010B580F83D200268D2F887
:1012600004E0D2F808C0D1E900342EF0700119432F
:1012700051602CF08001214391600022012180F80F
:101280003C2080F83D10BDE8104010467047B0B1DA
:1012900010B5044690F83D0028B9002084F83C00C1
:1012A000204600F00FF80220211D84F83D00206840
:1012B00000F00EFE012084F83D00002010BD01204A
:1012C00070470000E0B500681449884210D0B0F1C2
:1012D000804F18BF8CBD002001901148016841F07B
:1012E00001010160006800F00100019001988CBDCF
:1012F0000020002200900A48016841F002010160CC
:101300000421006800F00200009000981D20FFF703
:101310005FFA1D20BDE88C40FFF74CBA0004004086
:10132000403802400068C16841F00101C160816835
:1013300001F0070106291EBF016841F001010160AB
:101340000020704710B590F83C2004460220012A86
:1013500008BF10BD84F83D0001204FF6777284F875
:101360003C00206884465CF8083F23EA0202CCF87F
:1013700000200B682BB1102B03D0202B18BF302B73
:101380000FD1DCF8000020F07000184340F0070097
:10139000CCF800000020012184F83C0084F83D10C6
:1013A00010BD402B1AD0502B26D0602B32D0B3F575
:1013B000005F3DD0702BEDD1D1E90102C968104327
:1013C00040EA0120DCF8001021F47F410843CCF80A
:1013D0000000DCF8000040F07700D9E74B68CA68ED
:1013E000194600F0DDFDD4F800C05CF8080F40F0AD
:1013F000470020F03000CBE74B68CA68194600F080
:10140000CFFDD4F800C05CF8080F40F0570020F082
:101410002000BDE74B68CA68194600F0D2FDD4F839
:1014200000C05CF8080F40F0670020F01000AFE744
:10143000D1E90102C968104340EA0120DCF800103C
:1014400021F47F410843CCF80000DCF8000040F4B0
:1014500080409DE7704710B5044600680169890720
:1014600044BFC1685FEA817138D40169490744BF4C
:10147000C1685FEA41713DD40169090744BFC16891
:101480005FEA017143D40169C90644BFC1685FEADC
:10149000C16148D40169C9071CBFC1685FEAC17155
:1014A0004ED10169090644BFC1685FEA01614FD4AA
:1014B0000169490644BFC1685FEA416150D40169CE
:1014C000890646BFC1685FEA816110BD6FF02001E7
:1014D00001612046BDE81040FFF7B7BE6FF0020182
:1014E0000161012121778069800741D02046FFF703
:1014F000B1FF43E06FF004010161022121778069AF
:1015000010F4407F3ED02046FFF7A4FF40E06FF08C
:101510000801016104212177C06980073CD0204681
:10152000FFF798FF3EE06FF010010161082121777D
:10153000C06910F4407F39D02046FFF78BFF3BE0B5
:101540006FF001010161204600F03CF82068A8E737
:101550006FF0800101612046FFF776FE2068A7E763
:101560006FF040010161204600F038F82068A6E7DE
:10157000204600F025F8204600F023F800202077D0
:10158000206872E7204600F01BF8204600F019F8AA
:101590000020207720686FE7204600F011F82046F1
:1015A00000F00FF80020207720686CE7204600F05C
:1015B00007F8204600F005F800202077206869E74A
:1015C00070477047044900680968884218BF70472F
:1015D0004FF4007000F08ABEB806002070477047D4
:1015E00010B5D0F800E00446DEF80010DEF80C205C
:1015F000DEF814305FEA017C50D002F4907003F002
:101600000103C01852D0C8071FBF12F48070E06BEE
:1016100040F00100E063480704D51BB1E06B40F0E7
:101620000200E063880704D51BB1E06B40F00400C2
:10163000E063BCF1000F04D51BB1E06B40F0080083
:10164000E063E06B00286ED002EA0100800604D55A
:10165000204600F0DAFCD4F800E0DEF81400E16B7C
:1016600000F0400001F0080140184CD0204600F086
:10167000BFFC20684169490640D5416921F040011D
:101680004161606BD0B32F490165FEF75AFE002817
:1016900049D0606B016DBDE81040084711408A06D3
:1016A00005D52046BDE8104000F0AFBC114008064B
:1016B0000FD4480637D5DEF80C0020F04000CEF8F5
:1016C0000C00202084F839002046BDE8104000F0CE
:1016D000A6B994F83900212825D1A068216AB0F56F
:1016E000805F16D108886FF35F20CEF80400206970
:1016F000002814BF481C881C20620FE02046BDE86B
:101700001040FFF76CBF2046FFF769FF0020E06341
:1017100010BD481C20620878CEF80400E08C013827
:10172000E084000400D010BDDEF80C0020F0800042
:10173000CEF80C00DEF80C0040F04000CEF80C00B3
:1017400010BD00BFE51F000850B310B5044690F867
:10175000390028B9002084F83800204600F022F82B
:10176000242084F839002068C16821F40051C16048
:10177000204600F087FC2068016921F49041016156
:10178000416921F02A014161C16841F40051C16001
:1017900000202021E06384F8391084F83A1010BD4D
:1017A0000120704710B586B0044601A81421FEF749
:1017B0003FFD20682C49884226D02C49884250D1D0
:1017C0000020C74900900A6942F400220A610A69B0
:1017D00002F400220092009A0090086840F0010094
:1017E00008600868012100F00100009000980820BE
:1017F00005900320049003910221CDE901011C48CA
:1018000001A9FEF7B1FD2CE00020B54900904A691E
:1018100042F010024A614A6902F010020092009AF6
:101820000090086840F001000860086801A900F015
:1018300001000090009807200590032004900120EB
:101840000390022002904FF4C06001900848FEF718
:101850008BFD252000210022FEF7BAFF2520FEF790
:10186000A9FF06B010BD00BF00100140004C0040B1
:1018700000000240034690F83A00202806D10120DB
:10188000E9B1E2B193F83800012801D10220704794
:101890000020DA85D8639A859962222183F838007E
:1018A00083F83A101968CA6842F48072CA604A69BB
:1018B00042F001024A61CA6842F02002CA607047E1
:1018C000204900680968884218BF7047B0B51E4CAF
:1018D0006588FF2D07D300204FF4807160801B487E
:1018E000FEF7A6FC26E025B918484FF48071FEF7F4
:1018F0009FFC681C1549608022784A5511FA80F2D5
:1019000012F8012C0A2A15D180B2084410F8020CF2
:101910000D280FD1002060800C4C0DA0214600F056
:10192000ADFD0EA120460322FEF78DFC10B90CA0E0
:1019300000F0A4FD034804490122BDE8B040FFF7D0
:1019400099BF00BFF80600201000002014000020FE
:10195000726563656976653A2025730072756E005D
:101960007374617274207363616E0D0A200000004D
:101970002DE9F041044690F8390020280AD10E469E
:101980000120002949D01746002A46D094F8380093
:10199000012802D10220BDE8F08100201D46E0634D
:1019A000012084F83800212084F83900FEF7AEFDCC
:1019B0008046E784A7841DE0E08C802142462B46C8
:1019C0000138E0842046A76800F01AFCB7F5805F74
:1019D0000BD1C8B9318820686FF35F21416020695D
:1019E000002814BF0136023604E068B9206816F8F2
:1019F000011B4160E08C0028DED120464021424698
:101A00002B4600F0FDFB10B10320BDE8F081002063
:101A1000202184F8380084F83910BDE8F08170473F
:101A2000FEE700002DE9F04186B000272C48012296
:101A30004FF4C066012405970097016841F0040146
:101A40000160016801F004010091009900970168AC
:101A500041F020010160016801F02001009100992E
:101A60000097016841F080010160016801F0800188
:101A7000009100990097016841F00101016001683F
:101A800001F00101009100990097016841F0020105
:101A900001604FF4C061006800F0020000900098FF
:101AA000104800F5406580462846FEF72AFD40466E
:101AB00001210022FEF725FDCDE90347CDE90164B0
:101AC00001AE28463146FEF74FFC40463146CDE98F
:101AD0000347CDE90144FEF747FC06B0BDE8F081BD
:101AE000303802400008024010B50C480C4B0D4C39
:101AF00000224FF480410262C0E90043C0E90222A3
:101B0000C0E90412C0E90622FEF704FD002814BF54
:101B1000BDE8104010BDFEF713BC00BFCC0500208F
:101B2000A08601000054004010B51048104C4FF43E
:101B300082724FF4007C4FF0010E02230021C0E9B5
:101B400000420A22C0E90211C0E9043EC0E906C110
:101B5000C0E90811C0E90A12FFF7EDFA002814BF26
:101B6000BDE8104010BDFEF7EBBB00BF2006002013
:101B700000300140FEB5174800214FF0010C5323FF
:101B80004FF08042CDE90411CDE902118161C0E935
:101B90000023C0E9021C0161CDE90011FFF777FBCA
:101BA00008B1FEF7CDFB4FF4805002A9029009481E
:101BB000FFF7C8FB08B1FEF7C3FB00206946CDE97B
:101BC00000000448FFF742FB08B1FEF7B9FB06B07E
:101BD00080BD00BF7806002010B586B0BB48E54C3C
:101BE000002141F2883242F2CF03CDE90411CDE960
:101BF00002118161C0E90043C0E902120161CDE92F
:101C00000011FFF744FB08B1FEF79AFB4FF4805038
:101C100002A90290AD48FFF795FB08B1FEF790FBD3
:101C200000206946CDE90000A848FFF70FFB08B186
:101C3000FEF786FB06B010BD10B50B480B4C4FF4F9
:101C4000E13300210C22C0E90043C0E90211C0E9E0
:101C50000412C0E90611FFF777FD002814BFBDE8A4
:101C6000104010BDFEF76CBB38070020004C004050
:101C700010B50B480B4C4FF4E13300210C22C0E9A6
:101C80000043C0E90211C0E90412C0E90611FFF7E0
:101C90005BFD002814BFBDE8104010BDFEF750BB2F
:101CA000F806002000100140FEE77047704701462B
:101CB00009284FF00A0328BF0921C94301440A310A
:101CC000CAB2B2FBF3F202EB8203A1EB4303591A4F
:101CD000084440EA0210C0B27047B0B5044600683C
:101CE000C168490612D44FF0FF31C160FEF70EFC07
:101CF000054607E0FEF70AFC401BB0F57A7F84BF7B
:101D00000320B0BD2068C0684006F3D50020B0BDF8
:101D10002DE9F0412D4D0446984616460F46287889
:101D200008B900F09FFA6869A0429CBF4FF0FF30ED
:101D3000BDE8F081069AEFF311804FF0200181F3A6
:101D4000118854B104EB4401002305EBC1010B677A
:101D5000C1E91876C1F86880CB6604EB440105EB55
:101D6000C1014A6780F311880020BDE8F08100BFFF
:101D70002DE9F041154D0446984616460F46287841
:101D800008B900F06FFA2869A0429CBF4FF0FF30FD
:101D9000BDE8F081069AEFF311804FF0200181F346
:101DA00011884CB104EB4401002305EBC1018B62A7
:101DB000C1E90676C1E9088304EB440105EBC101E2
:101DC000CA6280F311880020BDE8F0811401002070
:101DD0007047FEF791BC0000B0B596B000242448CF
:101DE00002250F94CDE90D44CDE902440594016824
:101DF00041F080510160006800F080500590059826
:101E000005941C48016841F480410160006800F4B9
:101E1000804005900598042015904FF4A870149503
:101E20001390082012904FF48000CDE9105001204B
:101E30000C904FF480300B9005200A900AA8FEF712
:101E40005DFE4FF48050052109904FF4A05008909A
:101E50000F20CDE90654059005A8FEF775FD4FF457
:101E60008070049001A80195FEF7E0FC16B0B0BDAB
:101E7000403802400070004010B50E480F4CD0F8BA
:101E8000801041F47001C0F880100B490A6842F0DC
:101E900001020A6000228A600B6823400B60084B35
:101EA0004B600B6823F480230B60CA604FF0006125
:101EB000016010BD08ED00E000380240FFFFF6FEB3
:101EC000103000240148FFF7C6BA00BFB806002052
:101ED0000268B0F1804F0ED0264B98420BD0264BB3
:101EE000984208D0254B984205D0254B984202D005
:101EF000244B984203D14B6822F070021A43B0F190
:101F0000804F20D01B4B98421DD01B4B98421AD0BB
:101F10001A4B984217D01C4B984214D01B4B984236
:101F200011D01B4B98420ED0164B98420BD0144B3D
:101F3000984208D0174B984205D0174B984202D0D0
:101F4000164B984203D1CB6822F440721A434B6976
:101F500022F080021A430A4B02608A68C2620A6851
:101F6000826240F480629A4204BF096901630121E0
:101F7000416170470004004000080040000C004030
:101F8000000401400000014000180040001C004017
:101F90000020004000400140004801400044014052
:101FA000D0F820C0036A23F001030362836923F0A1
:101FB000F00343EA021282612CF00A02114301622B
:101FC0007047036A23F010030362836923F47043AC
:101FD00043EA0232036A826123F0A00242EA01115D
:101FE00001627047806B0021C185C184FFF7F7BA99
:101FF0000168CA6822F49072CA604A6922F001023C
:102000004A61202180F83A10704790F83A1022294E
:1020100018BF70478168B1F5805F08D10268036915
:10202000816A526883B1D2B221F8012B10E00269B3
:1020300001684968002A826A02F10103836218BFBD
:1020400001F07F01117004E06FF35F2221F8022B91
:102050008162C18D0139C185090400D070470168D2
:10206000CA6822F02002CA60CA6822F48072CA607C
:102070004A6922F001024A61202180F83A10FFF7F4
:102080001FBC00002DE9F0470446006849F20C65CA
:102090000169E26821F4405111430161A168D4E96A
:1020A0000423E769C6681143AE43B7F5004F41EA20
:1020B000030141EA070141EA0601C1604169A269E1
:1020C00021F4407141EA020141614A4940F48060D3
:1020D0003FD188420CBFDFF820A1DFF820A1D04714
:1020E000D4F804908046D04767680646D0476168B8
:1020F00019257F00684306FB05F34900B3FBF7F39E
:10210000B0FBF1F06421B0FBF1F202FB1102181AEE
:102110004FEA49031044322202EBC0004FF4F87238
:10212000B0FBF1F002EA400008FB05F2B2FBF3F26B
:10213000B2FBF1F100EB0116D0476168684349003A
:10214000B0FBF1F7D04761686843072203234900D9
:102150003CE0884214BFDFF8A4A0DFF89CA0D04781
:10216000D4F804908046D04767680646D047616837
:102170001925BF00684306FB05F38900B3FBF7F39D
:10218000B0FBF1F06421B0FBF1F202FB1102181A6E
:102190004FEA89031044322202EB001008FB05F2DB
:1021A000B0FBF1F0B2FBF3F200F0F000B2FBF1F1A2
:1021B00000EB0116D047616868438900B0FBF1F776
:1021C000D047616868430F2204238900B0FBF1F017
:1021D000391A6427B0FBF7F505FB1700084421689E
:1021E00098403230B0FBF7F0104030438860BDE8D3
:1021F000F08700BF001401407D0A0008690A00084A
:102200002DE9F0411D4690460F4604465E1C2068AD
:1022100001683940B94204BF0020BDE8F081002EBA
:10222000F5D035B1FEF772F9A0EB0800A842EED95F
:102230002068C16821F4D071C160416921F00101B9
:1022400041612020002184F8390084F8381084F896
:102250003A000320BDE8F0817F48FFF7C1B900BF15
:10226000FEE70000B0B51148114A0021DFF844E054
:10227000124D032310244FF4806C8162C0F80320B8
:102280000D4AC0E918258466C162C0E90433C0E97B
:10229000062E0B4AC0E908C1C0E91C11C0F807208E
:1022A000084A0260C16620218171B0BD140100207E
:1022B00047455200CC0100205C290008BC010020E9
:1022C000525454005345474710B5074C00F00F03D4
:1022D000044AB0F1FF3F2344C8BF831808011870B7
:1022E00010BD00BF00E400E014ED00E0014601482D
:1022F000FEF700B90014024010B586B001A8142101
:10230000FDF796FF2248234C0021FF227F23C0E9DE
:102310000041C0E90232C0E9041181610091FEF779
:10232000CDFD08B1FEF70CF8194800210024FEF796
:1023300051FD41F21231884203D11EA000F0F0FAA3
:1023400023E015A000F0ECFA4020CDE9044401A9F7
:1023500001228DF8060043F21250ADF804000C483B
:10236000FEF75EFE08B1FDF7EBFF1148694601225A
:1023700000900748FEF7FCFD08B1FDF7E1FF0448B7
:10238000002141F21232FEF72AFD06B010BD00BF57
:102390007807002000280040525443206973206EC3
:1023A0006F7420696E697469616C696572740D007F
:1023B0000205071352544320697320696E697469DA
:1023C000616C696572740D00E0B50190224801A945
:1023D00001224FF6FF73FFF7CBFA019802B080BDE0
:1023E00082B0FEF793F9FFF7F7FCFFF71BFBFFF74F
:1023F0003FFCFFF779FBFFF71FFCFFF795FBFFF7AB
:10240000EBFBFFF7B7FBFFF777FF00240EA10020DF
:10241000002200230094FFF7ABFC0DA10020002256
:1024200000230094FFF774FC0B480C490122FFF7CE
:1024300021FA0BA000F074FA0F48FEF773FFFDF7C6
:1024400041FFFDF75DFFFEE7525454555000000078
:10245000525454444F574E00F806002010000020FC
:1024600048656C6C6F2053544D3332463430375AC4
:102470004720546573740D00B80600200FB4054B57
:1024800010B503A9044A029800F018F810BC5DF8D2
:1024900014FB0000C92300080000002002E008C867
:1024A000121F08C1002AFAD170477047002001E0CE
:1024B00001C1121F002AFBD1704700002DE9FF4F18
:1024C0008DB00F460546002606E025280BD0DDE935
:1024D0000F1290476D1C761C28780028F5D111B09A
:1024E0003046BDE8F08F0024A246A1460122EC4907
:1024F00000E0044315F8013F203B02FA03F00842D4
:10250000F7D128782A2810D06FF02F022878A0F170
:102510003001092914D80AEB8A0102EB410144F089
:10252000020400EB010A6D1CF0E701CF5FEA000A2C
:1025300003D544F40054CAF1000A44F002046D1CAF
:1025400028782E2817D115F8010F44F004042A2802
:102550000ED06FF02F022878A0F1300109290AD897
:1025600009EB890102EB410100EB01096D1CF2E767
:1025700057F8049B6D1C28786C280FD006DC4C287B
:1025800017D068280DD06A2814D104E0742810D020
:102590007A280FD10DE044F400140AE044F48014CA
:1025A00001E044F440146978814202D104F58014BA
:1025B0006D1C6D1C2A786E2A1FD00CDC632A31D06A
:1025C00004DC002A8BD0582A11D1A3E0642A68D0F9
:1025D000692A0CD165E0732A2ED004DC6F2A73D0EF
:1025E000702A04D19BE0752A6FD0782A6ED01046ED
:1025F000DDE90F129047761C50E1C4F30250022827
:1026000006D0032809D0042801CF09D0066045E18F
:1026100001CFF117C0E9006140E101CF06803DE143
:1026200006703BE117F8040B8DF8000000208DF8D0
:102630000100EB46012003E057F804BB4FF0FF30E8
:1026400061074FF0000102D40DE008F10101884656
:1026500049450FDA8045F8DB1BF808100029F4D152
:1026600008E008F1010188468142FADB1BF80810F6
:102670000029F6D1DDE90F23AAEB080081462146A7
:1026800000F036F9304400EB080604E0DDE90F12F3
:102690001BF8010B9047B8F10108F7D221464846D4
:1026A000F7E00A21C4F302534FF0000B0891022B0C
:1026B00004D001CFC117032B09D00AE0FF1D27F07A
:1026C0000707F7E8020108E032E01FE020E000B26F
:1026D000C117042B01D140B2C117031E71F10003D1
:1026E00007DA4FF0000CD0EB0C006CEB01012D234E
:1026F00002E0230504D52B238DF82430012303E0C9
:10270000E30701D02023F7E7984658E00A2110E0BC
:1027100010210EE010204FF0000B08900CE010216B
:102720004FF0000B44F004044FF00809089103E057
:1027300008214FF0000B0891C4F30253022B04D080
:1027400001CF0021032B06D006E0FF1D27F007076D
:10275000F7E8020103E080B2042B00D1C0B24FF0D1
:10276000000823072BD5702A07D0DDF820C08CF095
:10277000100C5CEA0B0C05D00EE040238DF82430E1
:10278000012308E050EA010306D030238DF82430FD
:102790008DF8252002239846DDF820C08CF0080C27
:1027A0005CEA0B0C0BD150EA010301D1630706D59B
:1027B00030238DF824304FF00108A9F10109582A7F
:1027C00004D038A20B9208AA0A920BE03AA2F9E7C9
:1027D0005B46089AFDF7F4FC0B9B9B5C0A9A521E21
:1027E0000A92137050EA0102F2D10A98ADEB000090
:1027F00000F1200B600702D524F4803401E04FF093
:102800000109D94502DDA9EB0B0000E0002000EB37
:102810000B0141440890AAEB010AE00306D4DDE96C
:102820000F232146504600F063F806444FF000099C
:1028300008E009A911F80900DDE90F12904709F134
:102840000109761CC145F4DBE0030CD5DDE90F235B
:102850002146504600F04CF8064404E0DDE90F1232
:1028600030209047761C0899481E08900029F5DC16
:1028700008E00A980A990078491C0A91DDE90F12CC
:102880009047761CBBF10001ABF1010BF1DC214656
:102890005046DDE90F2300F019F806446D1C1BE6D5
:1028A0000928010030313233343536373839616226
:1028B00063646566000000003031323334353637EA
:1028C0003839414243444546000000002DE9F041BB
:1028D000044600251E461746880404D405E0394600
:1028E0002020B0476D1C641EF9D52846BDE8F08154
:1028F0002DE9F041044600251E469046C80301D547
:10290000302700E02027880404D505E041463846FA
:10291000B0476D1C641EF9D52846BDE8F081000063
:1029200010B5044601E0FFF74FFD14F8010B044910
:102930000028F8D1BDE810400A20FFF745BD00008F
:10294000000000200000000000000000010203045D
:102950000607080900000000010203045465726DB7
:10296000696E616C000000008829000800000020EA
:10297000100000009C240008982900081000002086
:1029800090470000AC240008000000000100000097
:08299000100000000024F40017
:040000050800018965
:00000001FF
